:020000040800F2
:10000000001B0020950500088102000883020008FB
:100010008F0200089B020008A702000800000000F1
:10002000000000000000000000000000B302000813
:10003000B502000800000000AB050008B702000888
:10004000AF050008AF050008AF050008B9020008B9
:10005000AF050008AF050008592F0008AF050008DC
:10006000892F0008B72F0008AF050008AF0500086A
:10007000AF050008AF050008AF050008AF05000890
:10008000AF050008AF050008AF050008AF05000880
:10009000AF050008AF050008AF050008AF05000870
:1000A000AF050008AF050008AF050008AF05000860
:1000B000AF050008AF050008AF050008AF05000850
:1000C000AF050008AF050008AF050008AF05000840
:1000D000AF0500084F2E0008B55C0008AF0500080A
:1000E000AF050008AF050008AF050008AF05000820
:1000F000AF050008AF050008AF050008AF05000810
:10010000AF050008AF050008AF050008AF050008FF
:10011000AF050008AF050008AF050008AF050008EF
:10012000AF050008AF050008AF050008AF050008DF
:1001300000F002F800F094F80AA090E8000C824465
:100140008344AAF10107DA4501D100F089F8AFF242
:10015000090EBAE80F0013F0010F18BFFB1A43F0A5
:1001600001031847240D0100440D0100103A24BF7B
:1001700078C878C1FAD8520724BF30C830C144BF0C
:1001800004680C607047000000230024002500264E
:10019000103A28BF78C1FBD8520728BF30C148BFEA
:1001A0000B6070476E2908F0CB87702908F06983CF
:1001B00066290BF0B88765290BF0B58767290BF026
:1001C000B2876129AFF3008003681B0A28BF41F0A2
:1001D0008001692908F0DA82642908F0D78275293C
:1001E00008F0D4826F2909F0C882782908F0358395
:1001F000E92909F06382E42909F06082F52909F010
:100200005D82EF2909F0C582F82908F0348303687C
:10021000DB0928BF41F08001632909F0E4817329DB
:1002200009F0E981E32909F0C183F32909F0C683C4
:10023000002070471FB59DE8030008F0D5FE09F0C7
:10024000FBFA0400002000210BF0ACF8401C6060B9
:10025000002000210BF0BCF8E0601FBD10B510BD00
:1002600009F004FE1146FFF7E5FF03F061F909F01C
:1002700022FE03B4FFF7F2FF03BC09F093FE000077
:1002800070470EA11C4802F0BEFD00BFFEE71BA197
:10029000194802F0B8FD00BFFEE727A1164802F09A
:1002A000B2FD00BFFEE733A1134802F0ACFD00BF72
:1002B000FEE7704770477047704700000D0A2A2A12
:1002C0002A2A2A2A2A2A2A2A2A2A2A2A2A2A2A2A8E
:1002D0002A486172644661756C745F48616E646C33
:1002E00065722A2A2A2A2A2A2A2A2A2A2A2A2A2AEB
:1002F0002A2A2A2A2A0D0A00003801400D0A2A2A31
:100300002A2A2A2A2A2A2A2A2A2A2A2A2A2A2A2A4D
:100310002A4D656D4D616E6167655F48616E646C05
:1003200065722A2A2A2A2A2A2A2A2A2A2A2A2A2AAA
:100330002A2A2A2A2A0D0A000D0A2A2A2A2A2A2AC1
:100340002A2A2A2A2A2A2A2A2A2A2A2A2A42757361
:100350004661756C745F48616E646C65722A2A2A06
:100360002A2A2A2A2A2A2A2A2A2A2A2A2A2A2A2AED
:100370000D0A00000D0A2A2A2A2A2A2A2A2A2A2AAB
:100380002A2A2A2A2A2A2A2A2A5573616765466157
:10039000756C745F48616E646C65722A2A2A2A2A19
:1003A0002A2A2A2A2A2A2A2A2A2A2A2A2A2A0D0AEA
:1003B000000000000CB50020019000906C4800681F
:1003C00040F480306A49086000BF6948006800F462
:1003D000003000900198401C0190009818B90198D5
:1003E000B0F5A06FF1D16248006800F4003010B1A0
:1003F0000120009001E0002000900098012843D1E6
:100400005C48006840F010005A49086008460068DF
:1004100020F0030008600846006840F00200086011
:10042000534840685249486008464068486008465A
:10043000406840F4806048600846406820F47C10C2
:1004400048600846406840F4E81048600846006884
:1004500040F08070086000BF4548006800F0007000
:100460000028F9D04248406820F003004049486025
:100470000846406840F00200486000BF3C484068C1
:1004800000F00C000828F9D10CBD10B5FFF792FF61
:1004900010BD10B53648006840F0010034490860CE
:1004A00008464068344908403149486008460068B9
:1004B000324908402E4908600846006820F4802030
:1004C00008600846406820F4FE0048604FF41F00B2
:1004D0008860FFF7DAFF4FF000602949086010BD1F
:1004E00010B5002100200022214B5B6803F00C01B5
:1004F00021B1042906D0082928D107E0214B224C3C
:10050000236027E01F4B204C236023E0184B5B68DF
:1005100003F47010164B5B6803F48032022303EB84
:10052000904022B9194B4343174C23600DE0104B08
:100530005B6803F4003323B1144B4343124C236034
:1005400003E0104B4343104C236003E00D4B0E4C73
:10055000236000BF00BF064B5B68C3F303130C4C62
:10056000E15C094B1B68CB40074C236010BD0000C9
:1005700000100240002002400000FFF8FFFFF6FEDE
:1005800008ED00E000127A000000002000093D00A4
:10059000040000200948804709480047FEE7FEE7BD
:1005A000FEE7FEE7FEE7FEE7FEE7FEE7FEE7FEE723
:1005B00004480549054A064B7047000093040008AB
:1005C0003101000800030020001B0020000F002064
:1005D000000F002031490143314A1160704770B566
:1005E000002100230F22C47804B32D4C246804F4A6
:1005F000E064C4F5E064210AC1F10403CA40447810
:1006000004FA03F18478144021430901254C06784B
:10061000A155047804F01F050124AC4005786D1144
:10062000AD0005F1E025C5F8004109E0047804F0CB
:100630001F050124AC401C4D0678761145F8264074
:1006400070BD1A4A0A400243154B1B1F1A607047BF
:1006500039B1134A121D12680243114B1B1D1A6057
:1006600006E00F4A121D126882430D4B1B1D1A60D3
:100670007047042808D14FF0E021096941F00401D6
:100680004FF0E022116107E04FF0E021096921F00D
:1006900004014FF0E0221161704700000000FA05EC
:1006A0000CED00E000E400E080E100E080FFFF1FCF
:1006B00010B50446CC48844208D10121042000F042
:1006C0002DFB0021042000F029FB46E0C7488442AE
:1006D00008D10121082000F021FB0021082000F0B2
:1006E0001DFB3AE0C248844208D10121102000F0ED
:1006F00015FB0021102000F011FB2EE0BD488442C4
:1007000008D10121202000F009FB0021202000F069
:1007100005FB22E0B848844208D10121402000F0C6
:10072000FDFA0021402000F0F9FA16E0B3488442B7
:1007300008D10121802000F0F1FA0021802000F092
:10074000EDFA0AE0AE48844207D10121801500F09D
:10075000E5FA0021A01500F0E1FA10BD10B5012165
:10076000084600F0DBFA0021012000F0D7FA10BDA6
:100770002DE9F04102460025002600200023002438
:10078000002791F803C00CF00F0591F803C00CF09E
:10079000100CBCF1000F03D091F802C04CEA050523
:1007A00091F800C0BCF1000F31D0146800202BE09C
:1007B0004FF0010C0CFA00F3B1F800C00CEA03068C
:1007C0009E4220D183004FF00F0C0CFA03F7BC437C
:1007D00005FA03FC4CEA040491F803C0BCF1280FAD
:1007E00006D14FF0010C0CFA00FCC2F814C00AE06C
:1007F00091F803C0BCF1480F05D14FF0010C0CFA81
:1008000000FCC2F810C0401C0828D1D31460B1F815
:1008100000C0BCF1FF0F34DD546800202EE000F171
:10082000080C4FF0010808FA0CF3B1F800C00CEA0C
:1008300003069E4221D183004FF00F0C0CFA03F700
:10084000BC4305FA03FC4CEA040491F803C0BCF174
:10085000280F05D100F1080C08FA0CF8C2F8148032
:1008600091F803C0BCF1480F07D100F1080C4FF01C
:10087000010808FA0CF8C2F81080401C0828CED3F2
:100880005460BDE8F0814FF6FF7101800221817054
:100890000421C17070470246002093680B400BB1E1
:1008A000012000E0002070470146886880B2704750
:1008B00002460020D3680B400BB1012000E000206D
:1008C00070470146C86880B2704701617047416156
:1008D00070470AB1016100E041617047C160704733
:1008E0004FF480320A438261816182618269826948
:1008F000704702460020434B18684FF6807318403B
:1009000040EA021008433F4B186070473E49C861F7
:100910007047F0B50A46002300240021002500F0AE
:100920000046B6F1004F02D1364EF16901E0354E76
:100930007168C0F3034583B200F44016B6F5401F5A
:1009400008D121F070612F4E766826F070662D4F29
:100950007E6012E000F48016B6F5801F06D10326F3
:1009600006FA05F4A14341F0706106E0460D360138
:1009700003FA06F6B14341F0706122B1460D36012B
:1009800003FA06F6314300F00046B6F1004F02D1FB
:100990001C4EF16101E01B4E7160F0BD30B50022CC
:1009A0008B071C0F0F2303FA04F2164B08338C102D
:1009B00053F824309343134C08348D1044F82530F9
:1009C00023468C1053F824308C07240F00FA04F4CB
:1009D00023430C4C08348D1044F8253030BD0A49AF
:1009E000DC3108607047000000080140000C014045
:1009F000001001400014014000180140001C01409B
:100A0000002001400000014000002042DF48006853
:100A100040F00100DD49086008464068DC490840B4
:100A2000DA49486008460068DA490840D749086052
:100A30000846006820F4802008600846406820F4DA
:100A4000FE0048604FF41F0088607047CF49096876
:100A500021F48031CD4A11601146096821F48021CA
:100A60001160B0F5803F03D0B0F5802F0ED106E0C5
:100A7000C649096841F48031C44A116007E0C3499E
:100A8000096841F4A021C14A116000E000BF00BF25
:100A9000704710B501460022002300204A11012AA8
:100AA00002D1BA4C236806E0022A02D1B74C236A6D
:100AB00001E0B64C636A01F01F02012494401C401F
:100AC0000CB1012000E0002010BD38B500200090DE
:100AD0000024002500BF3120FFF7DBFF054600980A
:100AE000401C00900098B0F5A06F01D0002DF2D00E
:100AF0003120FFF7CEFF08B1012400E0002420469A
:100B000038BD01460020A14A106820F0F80040EAF4
:100B1000C10010607047A04908607047024600207D
:100B20009A4B586820F47C1042EA01031843974B13
:100B30005860704798490866704701460020934AFC
:100B4000506820F003000843506070478F484068A9
:100B500000F00C007047014600208C4A506820F0DD
:100B6000F00008435060704701460020874A5068F3
:100B700020F4E06008435060704701460020834A3B
:100B8000506820F4605040EAC1005060704729B1BD
:100B90007E4A527A02437D4B5A7204E07B4A527A73
:100BA00082437A4B5A7270477B49D831086070474C
:100BB00001460020754A506820F4404008435060C8
:100BC00070470021714A20321170704A82F820105B
:100BD000012802D004280AD104E001216B4A203206
:100BE000117005E00521694A2032117000E000BF54
:100BF00000BF70476949086070476449096A01434A
:100C0000624A11627047654944390860704730B5DF
:100C100000210022002400235C4D6D6805F00C01CA
:100C200021B1042905D0082923D105E05C4D0560D8
:100C300022E05B4D05601FE0544D6D6805F47012B5
:100C4000524D6D6805F48034022505EB92421CB9C3
:100C5000544D554305600BE04C4D6D6805F400356F
:100C60001DB1504D5543056002E04D4D55430560A3
:100C700002E04B4D056000BF00BF444D6D6805F0BC
:100C8000F0010909484D6B5C0568DD4045603F4D4A
:100C90006D6805F4E061090A434D6B5C4568DD4011
:100CA00085603A4D6D6805F46051C90A3E4D6B5C34
:100CB0004568DD40C560354D6D6805F44041890BE0
:100CC0003A4D6B5CC568B5FBF3F5056130BD29B1E4
:100CD0002E4A526902432D4B5A6104E02B4A526955
:100CE00082432A4B5A61704729B1284A92690243CC
:100CF000264B9A6104E0254A92698243234B9A610C
:100D0000704729B1214AD2690243204BDA6104E0DD
:100D10001E4AD26982431D4BDA61704729B11B4AD2
:100D2000D2680243194BDA6004E0184AD268824361
:100D3000164BDA60704729B1144A12690243134B0B
:100D40001A6104E0114A12698243104B1A6170471C
:100D500012494039086070470F49C86470470B4911
:100D6000C87170470948406A40F08070074948627E
:100D7000704701460020054A92680A400AB10120E6
:100D800000E000207047014988727047001002405F
:100D90000000FFF8FFFFF6FE0000424280044242DE
:100DA00000127A0000093D001400002024000020F9
:100DB00010B50446FB48844209D101218803FFF79E
:100DC000ADFF00214FF48040FFF7A8FF32E0F64866
:100DD000844209D101214804FFF7ADFF00214FF4FF
:100DE0000030FFF7A8FF25E0F048844209D1012137
:100DF0008804FFF7A0FF00214FF48020FFF79BFF3E
:100E000018E0EB48844209D10121C804FFF793FFA1
:100E100000214FF40020FFF78EFF0BE0E5488442ED
:100E200008D101210805FFF786FF00214FF480104B
:100E3000FFF781FF10BD2DE9F04786B005460E464D
:100E40000024A24600BFA1460027B08900B100BF20
:100E50002F462C8A4CF6FF700440F08804432C8205
:100E6000AC894EF6F3100440B0883189084371898B
:100E700008430443AC81AC8A4FF6FF400440B0897C
:100E80000443AC8201A8FFF7C2FEC648874202D1E4
:100E9000DDF810A001E0DDF80CA0A88900F4004006
:100EA00040B10AEBCA0000EB0A1031684900B0FB00
:100EB000F1F807E00AEBCA0000EB0A10316889007C
:100EC000B0FBF1F86420B8FBF0F0040120096421C4
:100ED00001FB1089A88900F4004040B1322000EBEA
:100EE000C900B0FBF1F000F00700044308E0322035
:100EF00000EB09106421B0FBF1F000F00F00044397
:100F00002C8106B0BDE8F0874FF416510160002136
:100F10008180C18001810C21418100218181704744
:100F200010B502460020108A4FF2FF0318400B88CC
:100F30004C8823438C882343CC8823431843108256
:100F400010BD0021018041808180C180704721B1A6
:100F5000828942F40052828104E082894DF6FF7357
:100F60001A4082817047F0B5034600240026002510
:100F7000002040F66A17B94200D100BF1846C1F3FD
:100F8000421401F01F06012707FA06F5012C01D1D2
:100F90000C3004E0022C01D1103000E014301AB102
:100FA00007682F43076002E00768AF430760F0BDA2
:100FB0001AB1838A0B43838202E0838A8B43838244
:100FC0007047028A4FF6F0731A400282028A0A437F
:100FD0000282704782894FF2FF731A4082818289B0
:100FE0000A438281704721B1828942F002028281E4
:100FF00004E082894FF6FD731A4082817047028AAD
:101000004FF6DF731A400282028A0A430282704757
:1010100021B1028A42F48042028204E0028A4BF645
:10102000FF731A4002827047C1F308028280704742
:1010300001468888C0F308007047818941F00101AA
:1010400081817047028BD2B20283028B42EA012275
:1010500002837047028B02F47F420283028B0A43B1
:101060000283704721B1828A42F02002828204E02A
:10107000828A4FF6DF731A408282704721B1828ADA
:1010800042F01002828204E0828A4FF6EF731A4027
:101090008282704721B1828A42F00802828204E093
:1010A000828A4FF6F7731A408282704721B1828993
:1010B00042F40042828103E08289C2F30E028281FF
:1010C000704721B1828A42F40062828204E0828AFF
:1010D0004FF2FF731A4082827047828A4FF6FB7389
:1010E0001A408282828A0A438282704721B1828AB0
:1010F00042F00202828204E0828A4FF6FD731A40B7
:101100008282704702460020B1F5007F00D100BF07
:1011100013880B400BB1012000E00020704701F460
:101120000072B2F5007F00D100BFCA430280704751
:1011300070B50246002400230025002040F66A1600
:10114000B14200D100BFC1F3421501F01F030126D7
:1011500006FA03F3012D02D19689334006E0022DF1
:1011600002D1168A334001E0968A33400C120126E0
:1011700006FA04F41688344013B10CB1012000E0E3
:10118000002070BD10B50022002340F66A14A14271
:1011900000D100BF0A1201249440A3B2DC430480B2
:1011A00010BD0000003801400044004000480040ED
:1011B000004C004000500040002044490860091DD8
:1011C0000860091D0860091D086041483F49143145
:1011D0000860704700213D498279002A3AD00A46CA
:1011E000126803689A430B461A600A1D1268036866
:1011F0009A430B1D1A60027911440A6803681A4366
:101200000A60324A0832126803689A432F4B083347
:101210001A601A1D126803689A432C4B0C331A602B
:101220004279102A0ED11A1F126803681A43274BFD
:1012300008331A601A1D126803681A43234B0C33D3
:101240001A600DE02149427911440A6803681A4383
:101250000A6005E0027911440A6803689A430A604B
:1012600070470021016001710C21417100218171E1
:1012700070471649103109680143144A1032116051
:10128000704701460020114A143212680A400AB120
:10129000012000E0002070470C49143108607047BD
:1012A000014600200022094B1B6803EA0102074B9C
:1012B00014331B680B4013B10AB1012000E0002079
:1012C0007047024914310860704700000004014073
:1012D000FFFF0F0030B943F2DB028100A1F1C041F2
:1012E0000A6005E043F2D2028100A1F1C0410A6028
:1012F0006FF07042411C8900A1F1C0410A60810079
:10130000A1F1C041C1F80421704710280AD1182169
:101310004FF020421166402151664FF0FC3191663A
:10132000D16610E01821F74A116040214FF02042A9
:10133000C2F884104FF0FC31F24A083211604FF0CD
:101340002042C2F88C1070471820EE492031086006
:1013500000200906C1F8A4004FF0FC30E94928310B
:101360000860091D0860091D08607047D0E9011276
:101370001143C268114302691143426911438269F2
:101380001143C2691143026A1143426A1143826ADE
:101390001143C26A1143026B114302689200A2F129
:1013A000C0421160816808290BD101688900A1F150
:1013B000C041096841F0400201688900A1F1C041C3
:1013C0000A60416B0968426B526841EA0211426B44
:1013D000926841EA0221426B928941EA0241426BE2
:1013E000128A41EA0251426B127D41EA0261426B6C
:1013F000926911430268521C9200A2F1C04211602E
:10140000C16AB1F5804F1BD1816B0968826B52684C
:1014100041EA0211826B926841EA0221826B128AD0
:1014200041EA0251826B127D41EA0261826B92694C
:10143000114302689200A2F1C042C2F8041107E011
:101440006FF0704201688900A1F1C041C1F8042128
:10145000704730B5002100220023446844F008049E
:1014600085682C43C5682C4305692C43456944EACB
:101470004524856944EA4531C4692468C5696D68B5
:1014800044EA0524C5692D8944EA0544C5692D7BD4
:1014900044EA0562046A2468056A6D6844EA052422
:1014A000056A2D8944EA0544056A2D7B44EA0563F3
:1014B0000468102C05D14FF020442166A266E36633
:1014C00008E0904C21604FF02044C4F888208D4CF7
:1014D0000C34236030BD016841F01001426841EADC
:1014E0004221826841EA4231864A20321160C16855
:1014F0000968C268526841EA0221C268128941EA59
:101500000241C268127B41EA02617E4A28321160C0
:10151000016909680269526841EA02210269128977
:1015200041EA02410269127B41EA0261754A2C32AA
:101530001160416909684269526841EA02214269C1
:10154000128941EA02414269127B41EA02614FF08D
:101550002042C2F8B01070470021016002214160B2
:1015600000218160C160016141618161C1610162ED
:101570004FF480514162490081620021C1620163E0
:101580000F21426B1160426B5160FF21426B9160F1
:101590000F21426BD160426B1161426B516100219E
:1015A000426B91610F21826B1160826B5160FF2150
:1015B000826B91600F21826BD160826B1161826BB3
:1015C00051610021826B91617047102101600021FF
:1015D00041608160C160016141618161FC21C2693A
:1015E0001160C2695160C2699160C269D160026ACA
:1015F0001160026A5160026A9160026AD1607047AC
:101600000021016041608160FC21C2681160C268F4
:101610005160C2689160C268D1600269116002695C
:101620005160026991600269D1604269116042694A
:101630005160426991604269D160704751B1820046
:10164000A2F1C042126842F001038200A2F1C0423E
:10165000136009E08200A2F1C04212682A4B1A40CE
:101660008300A3F1C0431A60704799B1102808D1D4
:101670004FF02042126E42F004024FF020431A66EF
:101680001DE0204A126842F004024FF02043C3F8E4
:10169000802014E0102809D14FF02042126E1A4B1E
:1016A000DB1E1A404FF020431A6608E0154A126804
:1016B000154BDB1E1A404FF02043C3F880207047C3
:1016C00048B110492031096841F004014FF020422F
:1016D000C2F8A01009E00B49203109680A4AD21E5D
:1016E00011404FF02042C2F8A0107047B9B1102845
:1016F0000CD14FF02042126E42F040024FF02043D6
:101700001A661FE0800000A0FEFF0F00724A1268F8
:1017100042F040024FF02043C3F8802012E010282E
:1017200008D14FF02042126E6C4B1A404FF020430C
:101730001A6607E0684A1268684B1A404FF0204367
:10174000C3F88020704701460020102903D14FF0D4
:101750002042506F02E0604A14321068704710B5A2
:10176000F2B1102807D14FF020435B6E0B434FF0CE
:101770002044636632E0B0F5807F08D1564B1B1DD4
:101780001B680B434FF02044C4F8843026E0524BD2
:1017900024331B680B434FF02044C4F8A4301DE0F1
:1017A000102807D14FF020435B6E8B434FF020444D
:1017B000636613E0B0F5807F08D1474B1B1D1B68A3
:1017C0008B434FF02044C4F8843007E0424B24336D
:1017D0001B688B434FF02044C4F8A43010BD10B5F3
:1017E000024600200023102A03D14FF02044636EEC
:1017F00009E0B2F5807F03D1374C241D236802E055
:10180000354C2434236803EA01040CB1012000E0C4
:10181000002010BD102807D14FF02042526E8A439D
:101820004FF020435A6613E0B0F5807F08D12A4A72
:10183000121D12688A434FF02043C3F8842007E04A
:10184000254A243212688A434FF02043C3F8A4206B
:10185000704770B502460020002300240025102A9E
:1018600003D14FF02046736E09E0B2F5807F03D1BB
:10187000194E361D336802E0174E2436336803EAEA
:10188000010403EAD10514B10DB1012000E00020EC
:1018900070BD102808D14FF02042526E22EAD102CA
:1018A0004FF020435A6615E0B0F5807F09D10A4A0F
:1018B000121D126822EAD1024FF02043C3F884209F
:1018C00008E0054A2432126822EAD1024FF0204390
:1018D000C3F8A42070470000800000A0BFFF0F00E5
:1018E00010B50446FA48844208D101214015FFF79B
:1018F00015FA00216015FFF711FA17E0F548844248
:1019000008D101210015FFF709FA00212015FFF782
:1019100005FA0BE0F048844208D10121C803FFF723
:10192000FDF900214FF40040FFF7F8F910BD30B584
:101930000246002000235068E84C20400D790C68D6
:1019400044EA0524204350609068E54C2040D1E9EA
:1019500002542C434D7944EA450420439060D06AF8
:1019600020F470000C7C641EE4B2234340EA035070
:10197000D06230BD00210160017141718160C160A0
:1019800001210174704721B1826842F00102826036
:1019900003E0826822F001028260704721B1826810
:1019A00042F48072826003E0826822F48072826076
:1019B000704710B50023CBB21AB144681C43446091
:1019C00002E044689C43446010BD816841F0080116
:1019D00081607047014600208A6802F008020AB15F
:1019E000012000E000207047816841F0040181601F
:1019F0007047014600208A6802F004020AB1012003
:101A000000E00020704721B1826842F4A0028260A9
:101A100003E0826822F4A002826070470146002041
:101A20008A6802F480020AB1012000E000207047B9
:101A300010B50A4600210023416821F46041531E7D
:101A400041EA4331416010BD21B1426842F4006275
:101A5000426003E0426822F4006242607047F0B5E1
:101A600004460D4600200021092D11DDE068A5F196
:101A70000A0606EB4607072606FA07F18843A5F192
:101A80000A0606EB460603FA06F10843E0600CE09E
:101A9000206905EB4507072606FA07F1884305EBA1
:101AA000450603FA06F108432061072A0FDA606B46
:101AB000561E06EB86071F2606FA07F18843561EB8
:101AC00006EB860605FA06F10843606322E00D2A5C
:101AD0000FDA206BD61F06EB86071F2606FA07F1E2
:101AE0008843D61F06EB860605FA06F108432063F5
:101AF00010E0E06AA2F10D0606EB86071F2606FA43
:101B000007F18843A2F10D0606EB860605FA06F1F9
:101B10000843E062F0BD21B1826842F48012826025
:101B200003E0826822F48012826070470146C86C2C
:101B300080B2704766484C300068704721B14268F7
:101B400042F48062426003E0426822F480624260B4
:101B5000704721B1426842F48052426003E042681B
:101B600022F48052426070470A460021816821F4C5
:101B7000E04111438160704721B1826842F4004224
:101B8000826003E0826822F400428260704721B1E3
:101B9000826842F40212826003E0826822F4021238
:101BA00082607047014600208A6802F400120AB180
:101BB000012000E000207047F0B5044615460020E3
:101BC00000220026092911DDE068A1F10A0707EBD0
:101BD000470C072707FA0CF29043A1F10A0707EB1D
:101BE000470703FA07F21043E0600CE0206901EBBD
:101BF000410C072707FA0CF2904301EB410703FA67
:101C000007F210432061A06BC0F30156EF1C06F1F0
:101C1000010CA7EB0C0707EB870C1F2707FA0CF248
:101C20009043EF1C06F1010CA7EB0C0707EB8707AD
:101C300001FA07F21043A063F0BD10B50A46002177
:101C40000023816B21F44011531E41EA035181634B
:101C500010BD08B5002300930090009B0B44009337
:101C6000009B1A6008BD08B5024600200090009253
:101C700001F12800009B184400900098006880B291
:101C800008BD0A4600214168164B194011434160C6
:101C900070474162826270470A460021416821F024
:101CA0001F0111434160704740B10949083109687B
:101CB00041F40001064A0832116007E00449083186
:101CC000096821F40001024A0832116070470000DF
:101CD0000024014000280140003C0140FFFEF0FFCD
:101CE000FDF7F1FFFFFD3FFF0246002013680B40A8
:101CF0000BB1012000E000207047CA43026070472A
:101D000070B502460020002300240B125568CEB2A5
:101D100005EA060415681D4015B10CB1012000E06C
:101D2000002070BD00220A12D343036070470000F8
:101D300010B50446FE48844208D10121C014FEF7C4
:101D4000EDFF0021E014FEF7E9FFC4E0B4F1804F9D
:101D500008D101210846FEF7EEFF00210120FEF721
:101D6000EAFFB8E0F348844208D101210220FEF7DF
:101D7000E2FF00210220FEF7DEFFACE0EE488442E5
:101D800008D101210420FEF7D6FF00210420FEF730
:101D9000D2FFA0E0E948844208D101210820FEF7E3
:101DA000CAFF00210820FEF7C6FF94E0E448844201
:101DB00008D101211020FEF7BEFF00211020FEF700
:101DC000BAFF88E0DF48844208D101212020FEF7D5
:101DD000B2FF00212020FEF7AEFF7CE0DA4884420B
:101DE00008D101214014FEF799FF00216014FEF78D
:101DF00095FF70E0D548844209D10121C804FEF75F
:101E00008DFF00214FF40020FEF788FF63E0D048EB
:101E1000844209D101210805FEF780FF00214FF41B
:101E20008010FEF77BFF56E0CA48844209D10121A9
:101E30004805FEF773FF00214FF40010FEF76EFF18
:101E400049E0C548844208D101214020FEF773FFD4
:101E500000214020FEF76FFF3DE0C048844208D1DA
:101E600001218020FEF767FF00218020FEF763FF3D
:101E700031E0BB48844208D101218015FEF75BFFA9
:101E80000021A015FEF757FF25E0B648844209D18E
:101E900001210804FEF742FF00214FF48030FEF7D5
:101EA0003DFF18E0B048844209D101214804FEF703
:101EB00035FF00214FF40030FEF730FF0BE0AB4858
:101EC000844208D101218804FEF728FF00214FF445
:101ED0008020FEF723FF10BD00220288944B984219
:101EE0000ED0994B98420BD0B0F1804F08D0914B57
:101EF000984205D0904B984202D0904B984204D122
:101F00004FF68F731A404B881A438D4B984207D077
:101F10008C4B984204D04FF6FF431A40CB881A43AB
:101F200002808B8883850B880385814B98420BD078
:101F3000854B984208D08B4B984205D08A4B9842EB
:101F400002D08A4B984201D10B7A03860123838207
:101F5000704770B5002400220023058C4FF6FE76F2
:101F600035400584028C8388048B4FF68F752C4096
:101F7000B51E2C400D882C43751E2A400D892A431E
:101F80004D882A436A4DA8420BD06F4DA84208D015
:101F9000744DA84205D0744DA84202D0734DA8429A
:101FA00013D14FF6F7752A404D892A434FF6FB753A
:101FB0002A408D882A434FF6FF652B404FF6FF5588
:101FC0002B408D892B43CD892B4383800483CD887F
:101FD0008586028470BD70B5002400220023058C24
:101FE0004FF6EF7635400584028C8388048B48F6E3
:101FF000FF752C404FF6FF452C400D884FF6FF76BD
:1020000006EA05252C434FF6DF752A400D8906EABE
:1020100005152A434D8806EA05152A43444DA84272
:1020200002D0494DA8421DD14FF67F752A404D89F7
:102030004FF6FF7606EA05152A434FF6BF752A408C
:102040008D8806EA05152A434FF6FF352B404FF2DF
:10205000FF752B408D8906EA85052B43CD8906EA5D
:1020600085052B4383800483CD880587028470BD5A
:1020700070B5002400220023058C4FF6FF66354022
:102080000584028C8388848B4FF68F752C404FF625
:10209000FC752C400D882C434FF6FF552A400D89C6
:1020A0004FF6FF7606EA05252A434D8806EA052500
:1020B0002A431F4DA84202D0234DA8421DD14FF202
:1020C000FF752A404D894FF6FF7606EA05252A431B
:1020D0004FF6FF352A408D8806EA05252A434EF63D
:1020E000FF752B404DF6FF752B408D8906EA0515CF
:1020F0002B43CD8906EA05152B4383808483CD8845
:102100008587028470BD70B5002200230024058CF1
:102110004EF6FF7635400584038C8488828B48F622
:10212000FF752A404FF6FF452A400D8820E0000049
:10213000002C01400004004000080040000C00405A
:10214000001000400014004000340140004C0140E9
:10215000005001400054014000180040001C0040A5
:102160000020004000400140004401400048014080
:102170004FF6FF7606EA05252A434DF6FF752B40FC
:102180000D8906EA05352B434D8806EA05352B43B4
:10219000FA4DA84202D0FA4DA84208D14BF6FF757D
:1021A0002C408D894FF6FF7606EA85152C438480F6
:1021B0008283CD88A0F84050038470BD828B4FF29B
:1021C000FF331A408283828B4FF6FF7303EA0123A9
:1021D0001A4382837047F0B50C4615460022002151
:1021E0000026078C4EF6FF7C07EA0C070784828BDB
:1021F000018C4FF6FF7707EA043640F6FF473A4076
:102200004FF6FF7707EA05273A434FF6FF7707EACD
:1022100003373A43D94FB8420ED0D94FB8420BD00A
:10222000B0F1804F08D0D74FB84205D0D64FB84252
:1022300002D0D64FB84206D14DF6FF77394046F46A
:102240008057394305E047F6FF57394044F480573B
:10225000394382830184F0BD828B4FF6F3731A40B9
:102260008283828B0A4382837047F0B50C46154601
:10227000002200210026078C4FF6FF6C07EA0C07AE
:102280000784828B018C4FF6FF7707EA04264FF60E
:102290000C773A404FF6FF7707EA03172F433A438C
:1022A000B64FB8420ED0B64FB8420BD0B0F1804F07
:1022B00008D0B44FB84205D0B34FB84202D0B34FA4
:1022C000B84206D14FF6FF57394046F4807739437C
:1022D00005E04FF2FF57394044F480773943828359
:1022E0000184F0BD028B4FF2FF331A400283028B50
:1022F0004FF6FF7303EA01231A4302837047F0B5D8
:102300000C461546002200210026078C4FF6EF7C74
:1023100007EA0C070784028B018C4FF6FF7707EA68
:10232000041640F6FF473A404FF6FF7707EA0337B7
:102330003A434FF6FF7707EA05273A438F4FB842F3
:102340000ED08F4FB8420BD0B0F1804F08D08D4FD8
:10235000B84205D08C4FB84202D08C4FB84206D15B
:102360004FF6DF77394046F01007394305E04FF666
:102370005F77394044F01007394302830184F0BD90
:10238000028B4FF6F3731A400283028B0A430283D7
:102390007047F0B50C46154600220021068C4FF61A
:1023A000FE773E400684028B018C4FF60C7632405D
:1023B0007E1C06EA03162E433243704EB0420ED006
:1023C0006F4EB0420BD0B0F1804F08D06D4EB0428E
:1023D00005D06D4EB04202D06C4EB04206D14FF6E1
:1023E000FD76314044F00106314305E04FF6F576C5
:1023F000314044F00106314302830184F0BD70B5E1
:1024000005460C465D4885420ED05D4885420BD09E
:10241000B5F1804F08D05B48854205D05A488542C7
:1024200002D05A48854200D100E000BF208850B950
:102430002389A28861882846FFF7ABFFE1882846F8
:10244000FFF79EFF25E0208804280AD12389A2886F
:1024500061882846FFF753FFE1882846FFF742FFCF
:1024600017E0208808280AD12389A2886188284695
:10247000FFF7FBFEE1882846FFF7EEFE09E023891F
:10248000A28861882846FFF7A6FEE1882846FFF764
:1024900095FE70BD2DE9F04105460C46002601274A
:1024A000608808B9022600E00026A088012801D132
:1024B000022700E001272088A0B92389A28861882B
:1024C0002846FFF766FFE1882846FFF759FF238972
:1024D0003A4631462846FFF712FFE1882846FFF7C3
:1024E00001FF13E02389A28861882846FFF707FFD0
:1024F000E1882846FFF7F6FE23893A46314628460A
:10250000FFF747FFE1882846FFF73AFFBDE8F08173
:102510000A884B881A438B881A43CB881A430B8945
:102520001A434B891A438B891A43A0F844207047F9
:102530004FF6FF71818000210180C18041800172CE
:1025400070470021018041808180C18001814181EB
:102550008181C181704700210180418001218180FA
:102560000021C1800181704700210180418081806C
:10257000C18001814181818170470000002C0140B0
:10258000003401400004004000080040000C0040FE
:1025900021B1028842F00102028004E002884FF675
:1025A000FE731A400280704731B1B0F8442042F403
:1025B0000042A0F8442005E0B0F84420C2F30E0227
:1025C000A0F8442070471AB183890B43838102E04D
:1025D00083898B43838170478182704741EA02037C
:1025E000A0F8483070471AB183890B43838102E019
:1025F00083898B438381704701894FF6F8721140BC
:10260000018170470A46002101894FF68F731940F6
:1026100011430181704730B504460D4629462046D6
:10262000FFF7F0FF208940F00700208130BD2DE941
:10263000F04104460D4616461F46602D06D13B4626
:10264000012231462046FFF75AFE05E03B460122B3
:1026500031462046FFF79DFE29462046FFF7D2FF70
:10266000208940F007002081BDE8F08130B50C469C
:1026700000210189C9B24FF6FF7505EA032515430C
:1026800025432943018130BD2DE9F04105460E4621
:1026900017469846002443463A4631462846FFF7F7
:1026A000E5FF2C894FF6F870044044F007044FF61C
:1026B0008F70044044F070042C81BDE8F081F0B5C7
:1026C00004460D4616461F463B46324629462046DE
:1026D000FFF7CCFF208940F480402081F0BD0185C8
:1026E000828270470A46002101884FF68F73194095
:1026F000114301807047F0B50C4615461E46002177
:10270000002200230189028B038C4FF6F8773940B1
:1027100021434FF6FC473A4040F201173A434FF647
:10272000DD773B404FF6FF7707EA06172F433B4321
:10273000018102830384F0BD0A460021018B4FF61C
:102740008F7319401143018370470A460021018BA2
:1027500048F6FF7319404FF6FF7303EA022319434B
:10276000018370470A460021818B4FF68F73194011
:102770001143818370470A460021818B48F6FF731D
:1027800019404FF6FF7303EA022319438183704710
:1027900021B1028842F08002028004E002884FF6F4
:1027A0007F731A400280704721B1828842F0040290
:1027B000828004E082884FF6FB731A408280704763
:1027C00021B1828842F00802828004E082884FF6BC
:1027D000F7731A408280704721B1828842F001026B
:1027E000828004E082884FF6FE731A408280704730
:1027F0000A460021018B4FF6F773194011430183FC
:1028000070470A460021018B4FF2FF7319404FF6C3
:10281000FF7303EA02231943018370470A4600212C
:10282000818B4FF6F77319401143818370470A4635
:102830000021818B4FF2FF7319404FF6FF7303EABB
:1028400002231943818370470A460021018B4FF60A
:10285000FB7319401143018370470A460021018B25
:102860004FF6FF3319404FF6FF7303EA0223194373
:10287000018370470A460021818B4FF6FB73194094
:102880001143818370470A460021818B4FF6FF3345
:1028900019404FF6FF7303EA0223194381837047FF
:1028A0000A460021018B4FF67F73194011430183C3
:1028B00070470A460021018BC1F30E014FF6FF73EA
:1028C00003EA02231943018370470A460021818BE2
:1028D0004FF67F7319401143818370470A460021E8
:1028E000818BC1F30E014FF6FF7303EA02231943F4
:1028F000818370470A460021018C4FF6FD73194011
:102900001143018470470A460021018C4FF6F7738A
:1029100019401143018470470A460021018C4FF68B
:10292000DF7319404FF6FF7303EA02131943018462
:1029300070470A460021018C4FF67F7319404FF60D
:10294000FF7303EA02131943018470470A4600210A
:10295000018C4FF6FF5319404FF6FF7303EA022331
:102960001943018470470A460021018C4FF2FF731E
:1029700019404FF6FF7303EA02231943018470479D
:102980000A460021018C4DF6FF7319404FF6FF7384
:1029900003EA023319430184704730B50023012450
:1029A0008C40A3B2048C9C430484048C02FA01F58D
:1029B000ADB22C43048430BD30B5002304248C40D8
:1029C000A3B2048C9C430484048C02FA01F5ADB2DA
:1029D0002C43048430BD70B5034600200024184603
:1029E000183001258D40ACB21D8CA5431D8409B162
:1029F000082909D100EB6100056825F07005056024
:102A00000568154305600EE00D1FC5F34E0528440B
:102A1000056825F4E045056005684FF6FF7606EA8F
:102A200002263543056070BD21B1028842F00202E2
:102A3000028004E002884FF6FD731A40028070475E
:102A400021B1028842F00402028004E002884FF6BD
:102A5000FB731A400280704721B1828842F08002E5
:102A6000828004E082884FF67F731A40828070472C
:102A700002884FF6F7731A40028002880A430280E8
:102A8000704782884FF68F731A40828082880A438B
:102A90008280704702894FF6F8731A4002810289DA
:102AA0000A430281704702894FF67F731A40028100
:102AB00002890A430281704781847047818570478B
:102AC000818670470187704781877047A0F8401062
:102AD000704702884FF6FF431A40028002880A437B
:102AE000028070470146888E70470146088F704704
:102AF0000146888F70470146B1F840007047014693
:102B0000888C70470146088D704702460020138A62
:102B10000B400BB1012000E000207047CA43028245
:102B2000704730B50246002000230024158A05EACC
:102B30000103958905EA010413B10CB1012000E0FD
:102B4000002030BDCA4302827047000010B5044621
:102B500022464FF480710E48FDF7BBFE0D4804700D
:102B600010BD08B501210820FEF7BEF810208DF831
:102B700003000001ADF8000003208DF80200694653
:102B80000348FDF7F5FD0020FFF7E0FF08BD00005A
:102B9000000C0140280000204FF0E020006920F0E8
:102BA00004004FF0E021086109203649087008460A
:102BB000007800EB4001C1EBC0104FF6FF7101EA55
:102BC000C000314908807047002120F07F402D4A25
:102BD000127842434FF0E0235A6100229A610122A9
:102BE0001A6100BF4FF0E022116901F001021AB131
:102BF00001F48032002AF5D000224FF0E0231A6160
:102C00009A617047002100B9704720F07F401E4A4A
:102C1000128842434FF0E0235A6100229A61012258
:102C20001A6100BF4FF0E022116901F001021AB1F0
:102C300001F48032002AF5D000224FF0E0231A611F
:102C40009A6100BFE0E770B50446002600254FF406
:102C5000FA7094FBF0F0C6B24FF4FA7094FBF0F106
:102C600000FB114085B205E04FF4FA70FFF7CAFF90
:102C7000701EC6B2002EF7D115B12846FFF7C2FF6D
:102C800070BD00002A0000202C00002010B586B086
:102C9000044601210420FEF727F801218803FEF7EE
:102CA00023F818208DF817004FF40070ADF81400C9
:102CB00003208DF8160005A96B48FDF759FD042087
:102CC0008DF817000002ADF8140003208DF81600EF
:102CD00005A96548FDF74CFD01940020ADF81000F2
:102CE0000C20ADF80E000020ADF80C00ADF80A0085
:102CF000ADF8080001A95D48FEF79DF801215B4889
:102D0000FEF725F9012240F225515848FEF72BF92C
:102D100025208DF8000001208DF8030000208DF89B
:102D2000010002208DF802006846FDF758FC06B04D
:102D300010BD10B586B0044601210420FDF7D4FF74
:102D400001214804FDF7DDFF18208DF8170004204D
:102D5000ADF8140003208DF8160005A94248FDF7D0
:102D600007FD04208DF817000820ADF8140003209B
:102D70008DF8160005A93C48FDF7FAFC01940020E7
:102D8000ADF810000C20ADF80E000020ADF80C00DE
:102D9000ADF80A00ADF8080001A93548FEF74BF878
:102DA00001213348FEF7D3F8012240F22551304883
:102DB000FEF7D9F826208DF8000001208DF80300D9
:102DC00000208DF801008DF802006846FDF707FC31
:102DD00006B010BD2DE9F04107460C461546002609
:102DE0000DE014F8011B3846FEF71EF900BF402124
:102DF0003846FEF787F90028F9D0701C86B2AE423B
:102E0000EFDBBDE8F0810FB430B5CBB0054601ACC7
:102E100050A800904FF4947101A8009B4F9A05F0C0
:102E200019FC002000900BE014F8011B2846FEF767
:102E3000FBF800BF40212846FEF764F90028F9D0CE
:102E400020780028F0D14BB030BC5DF814FB10B5F1
:102E500040F225510548FEF76BF918B120210348CF
:102E6000FEF75DF910BD0000000801400038014088
:102E7000004400401FB501214420FDF735FF01212A
:102E80000846FDF731FF0120ADF80C0028208DF831
:102E90000F0003208DF80E0003A97848FDF768FCA9
:102EA0001C20ADF80C0048208DF80F0003A97448D1
:102EB000FDF75EFC00210846FDF770FD02210420AD
:102EC000FDF76CFD03210420FDF768FD0120009053
:102ED00000208DF8040008208DF8050001208DF8F1
:102EE00006006846FEF776F90C20009000208DF869
:102EF00004000C208DF8050001208DF806006846BE
:102F0000FEF768F906208DF8080001208DF8090009
:102F10008DF80A008DF80B0002A8FDF760FB082071
:102F20008DF8080002208DF809008DF80A000120B4
:102F30008DF80B0002A8FDF752FB09208DF8080060
:102F400003208DF809008DF80A0001208DF80B0090
:102F500002A8FDF744FB1FBD10B50A20FFF752FE83
:102F600001214648FDF797FC012809D14548007822
:102F700018B9012000F092F802E0002000F08EF86D
:102F80000120FEF79EF910BD10B50A20FFF73AFEAA
:102F900004213B48FDF77FFC48B93B48007818B94D
:102FA000012000F0CAF802E0002000F0C6F804207A
:102FB000FEF787F910BD10B50A20FFF723FE0821A0
:102FC0002F48FDF768FC50B930480078012803D13C
:102FD0000020FFF7BBFD02E00120FFF7B7FD08204E
:102FE000FEF76FF910BD10B50446012C01D1284938
:102FF00008702748007801282AD12648006801284F
:103000000AD02548006838B12348001F006818B16D
:10301000214808380068D8B90A20FFF7F3FD0020DE
:103020001B4908701B480068012800D110BD1A48D0
:10303000006808B90220F9E71748001F006808B9BE
:103040000320F3E7144808380068A0B90420EDE72E
:103050001048006878B91048006801280BD10E4864
:10306000001F0068012806D10B48083800680128B5
:1030700001D1074908700020D8E70000000801408E
:10308000001801402F000020300000202800002000
:103090002E000020000121421001234210B50446F9
:1030A000012C04D100212A48FFF70CFD21E029481A
:1030B0000078012806D0022809D003280CD0042863
:1030C00016D10FE031212248FFF7FCFC10E0C721A8
:1030D0001F48FFF7F7FC0BE040F267111C48FFF7B1
:1030E000F1FC05E040F2F3111948FFF7EBFC00BFDB
:1030F00000BF1948047010BD08B501214820FDF734
:10310000F3FD2020ADF8000010208DF8030003200F
:103110008DF8020069461148FDF72AFB0120FFF7F0
:10312000BDFF2020ADF8000069460D48FDF720FBEB
:1031300020210B48FDF7C9FB08BD10B50446224607
:1031400020210748FDF7C5FB0648047010BD0000AC
:10315000000400403A0000202F000020000C014035
:10316000001801403000002000B587B00121802008
:10317000FDF7BAFD0121C803FDF7B6FD0121C80323
:10318000FDF7CCFD00214FF40040FDF7C7FD4FF4E3
:103190008070ADF8180000208DF81B0006A9324899
:1031A000FDF7E6FA3148FEF79BFB002001908DF811
:1031B00008008DF809004FF460200390002004906F
:1031C00001208DF8140001A92848FEF7B0FB012169
:1031D0002648FEF7D8FB2548FEF7F7FB00BF23483B
:1031E000FEF7F8FB0028FAD12048FEF7FDFB00BFF0
:1031F0001E48FEF7FEFB0028FAD107B000BD10B54F
:1032000004460723012221461848FEF728FC012125
:103210001648FEF7F8FB00BF02211448FEF764FDD4
:103220000028F9D01148FEF781FC10BD70B50024CC
:10323000002508E00620FFF7E2FF04440520FFF721
:1032400002FD681CC5B20A2DF4DB0A20B4FBF0F4C1
:10325000B4F57A6F01D94FF47A642820B4FBF0F00A
:10326000C0F16400C0B270BD001C0140003C0140D0
:1032700030B589B005460C4601210820FDF734FD24
:1032800001210220FDF73DFD01210846FDF72CFD3F
:103290002020ADF8040003208DF8060018208DF8DA
:1032A000070001A91748FDF763FA01211648FDF749
:1032B00030FBADF81C50ADF818400020ADF81E00F2
:1032C000ADF81A0006A91148FEF706FE6020ADF819
:1032D00008000220ADF810000120ADF80A0002A994
:1032E0000A48FEF778FE08210848FFF78AFA01210C
:1032F0000648FFF74DFA01210448FFF749F909B0E4
:1033000030BD0000000C014000081A00000400401D
:103310001CB5FFF741FC4FF4A060FDF75BF94FF4DB
:10332000E130FFF7B3FC4FF4E130FFF702FDFFF7A8
:10333000E3FEFFF79FFDFFF717FF47214FF4FA70F9
:10334000FFF796FF0120FFF7A9FE04F0DEFB002047
:10335000EA490880EAA1EF48FFF755FDEEA00C21ED
:10336000CDE90010F248438802880A21084605F09A
:1033700021F81CBD1FB5EF4800780A2190FBF1F041
:103380003030C0B28DF80C00EA48007890FBF1F2C2
:1033900001FB12003030C0B28DF80D0000208DF816
:1033A0000E00E5A01821CDE90010E148438802880D
:1033B0001E210A2004F0FEFF03A81821CDE9001009
:1033C000DB48438802881E21AA2004F0F3FFDEA018
:1033D0001821CDE90010D648438802881E21C82054
:1033E00004F0E8FFD94800780A2190FBF1F0303072
:1033F000C0B28DF80800D548007890FBF1F201FBCF
:1034000012003030C0B28DF8090000208DF80A009B
:10341000CFA01821CDE90010C54843880288462175
:103420000A2004F0C7FF02A81821CDE90010C04807
:10343000438802884621AA2004F0BCFFC7A01821B7
:10344000CDE90010BA48438802884621C82004F01C
:10345000B1FFC34800780A2190FBF1F03030C0B2D0
:103460008DF80800BE48007890FBF1F201FB1200D5
:103470003030C0B28DF8090000208DF80A00B9A0E4
:103480001821CDE90010AA48438802886E210A203D
:1034900004F090FF02A81821CDE90010A448438849
:1034A00002886E21AA2004F085FFB0A01821CDE982
:1034B00000109F48438802886E21C82004F07AFFDC
:1034C000AB4800780A2190FBF1F03030C0B28DF8A3
:1034D0000800A748007890FBF1F201FB12003030A1
:1034E000C0B28DF8090000208DF80A00A1A01821B3
:1034F000CDE900108E484388028896210A2004F006
:1035000059FF02A81821CDE9001089484388028894
:103510009621AA2004F04EFF98A01821CDE90010B2
:103520008348438802889621C82004F043FF1FBDCA
:103530001CB5002500BF00BF002400BFFFF7E8FE58
:10354000FFF718FF02F072FB8DA17248FFF75BFCDA
:1035500003E04FF4FA70FFF755FB90A191A002F041
:1035600006FB0028F5D19BA16A48FFF74CFC03E05D
:103570004FF4FA70FFF746FB00F02FFB0028F7D15D
:1035800000F01DFEB9E0681C80B20546642832DBFD
:10359000FFF74CFE72490870954802789548037809
:1035A00095A15C48FFF72FFC714800786C490978B9
:1035B000CDE90010654803785E48027897A1554828
:1035C000FFF721FCA1480078A1490978CDE9001056
:1035D000A0480378A0480278A0A14E48FFF713FC4A
:1035E000A7A14C48FFF70FFC00F07BFDFFF7C2FEE0
:1035F00002F09EFA0025002002F0F6FA044614B10B
:10360000204600F007FE7A48007820BB7948007811
:1036100005281FD2DFE800F003080D121800002172
:103620009C48FFF74FFA15E031219A48FFF74AFA14
:1036300010E0C7219748FFF745FA0BE040F2671109
:103640009448FFF73FFA05E040F2F3119148FFF785
:1036500039FA00BF00BF374800787F4909788842AF
:1036600011DC3A4800787B49097888420BDC3C48F9
:10367000007877490978884205DC3D48007873492D
:10368000097888420BDD8448006808B9012000E011
:10369000002081490860C820FFF7D5FA02E0012028
:1036A0007D490860234800786B490978884203DD2A
:1036B0007AA11848FFF7A7FB2448007865490978E4
:1036C000884203DD7AA11348FFF79DFB2448007868
:1036D0005F490978884203DD7AA10E48FFF793FB22
:1036E0002348007859490978884203DD7BA10948BD
:1036F000FFF789FB0A20FFF7A6FA44E750000020F5
:1037000020486172647761726520696E6974204F28
:103710004B0D0A00003801404861726477617265A0
:1037200020696E6974204F4B2E2E2E0D0A0000006A
:10373000540000203100002074656D706572617462
:103740007572653A0000000043000000320000205E
:1037500068756D69646974793A000000250000009D
:10376000350000206C73656E733A00004C780000E1
:1037700036000020736D6F6B653A000070706D004D
:10378000436F6E6E656374204D51545473205365BE
:10379000727665722E2E2E0D0A000000434F4E4E9B
:1037A0004543540041542B43495053544152543DD6
:1037B00022544350222C226D717474732E686563F9
:1037C0006C6F7564732E636F6D222C313838330D36
:1037D0000A0000004D51545473205365727665728F
:1037E00020436F6E6E656374746564200D0A00007B
:1037F0002F0000203A0000206C65646C65643D3A3F
:10380000202564202B2B2B2B2B2B20206272696709
:1038100068743D3A2025640D0A00000074656D70DF
:103820003D25642043202068756D693D2564202571
:1038300025524820204C73656E733D2564206C78BA
:10384000202070706D3D2564200D0A003800002096
:1038500037000020330000203400002025645F5F23
:103860005F5F5F25645F5F5F5F5F5F5F25645F5FD2
:103870005F5F5F5F5F5F5F2564200D0A00000000EF
:103880004F6E654E65745F53656E64446174610D7F
:103890000A000000000400409401234274656D702A
:1038A000206F75742074656D705F74680D0A000078
:1038B00068756D69206F75742068756D695F7468CF
:1038C0000D0A00006C73656E73206F7574206C7345
:1038D000656E735F74680D0A0000000070706D20E3
:1038E0006F75742070706D5F74680D0A00000000C1
:1038F000F0B58BB0054600260024284605F016FAE0
:10390000C7B20DB11C2F02DA01200BB0F0BD06E0EA
:10391000A85D01A988550020A855701CC6B2BE42FA
:10392000F6DB002001A988550026002455E001A8F7
:10393000805D2B2810D008DC202814D023282ED01E
:10394000252825D026283FD130E02F2812D03D2829
:1039500033D03F2838D114E02819FDA105F050FAE2
:10396000E01CC4B236E02819FAA105F049FAE01CBF
:10397000C4B22FE02819F8A105F042FAE01CC4B245
:1039800028E02819F5A105F03BFAE01CC4B221E0BB
:103990002819F3A105F034FAE01CC4B21AE0281982
:1039A000F0A105F02DFAE01CC4B213E02819EEA135
:1039B00005F026FAE01CC4B20CE02819EBA105F0D2
:1039C0001FFAE01CC4B205E001A8805D2855601C08
:1039D000C4B200BF00BF701CC6B2BE42A7DB00204D
:1039E000285500BF91E72DE9F04FC9B005460C46B8
:1039F00016461F460DF5A47898E8000F0020489061
:103A000055B14CB1DA48864206D32FB1B9F1000F57
:103A100002D0BAF1780F03DA012049B0BDE8F08F87
:103A2000402118A805F091FA384605F07FF9059075
:103A30003B4648AA4021009018A801F0BDF8482153
:103A400006A805F082FABBF1000F09D0C9A03346E1
:103A5000CAA248218DE8310006A804F02BFE09E037
:103A6000C4A03346CBA248218DE81101039506A8D6
:103A700004F020FE402128A805F067FA06A805F00A
:103A800055F9059018A805F051F9049028A8009060
:103A900006AA18A8DDE9041300F03AFF00204890B8
:103AA000402138A805F051FA28A805F03FF9059003
:103AB00028AB48AA4021009038A800F0DDFF38A8C4
:103AC000FFF716FFBBF1000F0CD038A8A9A12B46B9
:103AD000B8A2CDE90046CDE902105146484604F0AF
:103AE000E9FD0CE038A8A3A12B46C04ACDE9018628
:103AF0000094CDE903105146484604F0DBFD002058
:103B00008BE72DE9F041ACB001270D2500260024FC
:103B100005F1F00004F03AFD06461EB938462CB017
:103B2000BDE8F08103E04FF4FA70FFF76BF8B0A145
:103B3000B1A002F01CF80028F5D10120902108AABC
:103B40000023CDE90032CDE90210B5A3C04AC1A1DE
:103B5000C3A0FFF748FFC5A10D20CDE9000105F185
:103B6000F00108ABC24A304604F0A4FD304605F02F
:103B7000DDF81FFA80F84146304602F01EF8FA20C0
:103B800002F032F8044624B1BAA1204605F098F8B4
:103B90000446CCB100200390B94803A904ABB94A4C
:103BA000CDE90010B849204604F03AFF04280AD1B4
:103BB000B348039904ABB34ACDE90010B3A1BB48A5
:103BC000FFF721F9002700BF304604F00EFDB8A131
:103BD000B8A001F0CCFF3846A1E730B5B3B0002063
:103BE0002F903090319032900125A02107AA9FA3F9
:103BF000CDE90032CDE9021089A3954A95A198A09C
:103C0000FFF7F1FE07A893A398A2AEA10090A748E2
:103C1000FFF7F9F82FA8002102910391CDE90410D4
:103C2000084601214FF4167390A2CDE9001007A9B0
:103C300088A001F022F9002842D1309A91B22F9841
:103C400001F0BBFFFA2001F0CFFF0446002C33D077
:103C5000204601F0DDF802282ED1204601F072FA4C
:103C6000062823D2DFE800F003090E13181DA1A1D6
:103C70008E48FFF7C8F800251DE0A3A18B48FFF789
:103C8000C2F818E0A7A18948FFF7BDF813E0AEA17C
:103C90008648FFF7B8F80EE0B3A18448FFF7B3F801
:103CA00009E0BAA18148FFF7AEF804E0C2A17F485D
:103CB000FFF7A9F800BF00BF2FA801F061F803E0EB
:103CC000C4A17A48FFF79FF8284633B030BD10B53D
:103CD0008CB004463021684605F037F9C6A120466D
:103CE00005F000F83021684605F02FF9C848027841
:103CF000C8A1684604F0C8FC6946204605F080F873
:103D00003021684605F021F9C8480278C8A1684604
:103D100004F0BAFC6946204605F072F83021684686
:103D200005F013F9C848007808B1C8A000E0C9A0A0
:103D30000246CAA1684604F0A7FC6946204605F081
:103D40005FF83021684605F000F9CA48007893E131
:103D50002532420025323000253246002533460008
:103D60002532350025323300253236002533440014
:103D70009554415D736861310000000025640A2597
:103D8000730A70726F64756374732F25730A2573D9
:103D90000000000025640A25730A70726F64756361
:103DA00074732F25732F646576696365732F25738C
:103DB0000A25730076657273696F6E3D25732672EE
:103DC00065733D70726F6475637473252532462583
:103DD000732665743D2564266D6574686F643D25A2
:103DE00073267369676E3D2573000000B00D0108EE
:103DF000434F4E4E4543540041542B434950535476
:103E00004152543D22544350222C223138332E3219
:103E100033302E34302E3333222C38300D0A00004C
:103E20004D6B785A656B4E4851545630564656562F
:103E3000626B744F59554A355548493257564D3083
:103E400063466F786130517A5132673D000000005F
:103E500000CF9D74366A30383555734B6871000059
:103E6000323031382D31302D3331000064310000D3
:103E7000F80D01086465766963655F696400000098
:103E80006C0000205C000020640D01086372656115
:103E90007465206465766963653A2025732C202556
:103EA000732C2025642C2025730D0A000038014056
:103EB0004F4B000041542B434950434C4F53450D49
:103EC0000A0000004F6E654E45545F4465764C69AC
:103ED0006E6B0D0A4E414D453A2025732C09505208
:103EE0004F49443A2025732C094B45593A25730D07
:103EF0000A000000546970733A09C1ACBDD3B3C95C
:103F0000B9A60D0A000000005741524E3A09C1AC53
:103F1000BDD3CAA7B0DCA3BAD0ADD2E9B4EDCEF31D
:103F20000D0A00005741524E3A09C1ACBDD3CAA791
:103F3000B0DCA3BAB7C7B7A8B5C4636C69656E74C3
:103F400069640D0A000000005741524E3A09C1ACA5
:103F5000BDD3CAA7B0DCA3BAB7FECEF1C6F7CAA7D5
:103F6000B0DC0D0A000000005741524E3A09C1ACC6
:103F7000BDD3CAA7B0DCA3BAD3C3BBA7C3FBBBF2F4
:103F8000C3DCC2EBB4EDCEF30D0A00005741524E34
:103F90003A09C1ACBDD3CAA7B0DCA3BAB7C7B7A8AA
:103FA000C1B4BDD328B1C8C8E7746F6B656EB7C71D
:103FB000B7A8290D0A0000004552523A09C1ACBD0C
:103FC000D3CAA7B0DCA3BACEB4D6AAB4EDCEF30D53
:103FD0000A0000005741524E3A094D5154545F5067
:103FE00061636B6574436F6E6E65637420466169CF
:103FF0006C65640D0A0000007B226964223A22315C
:104000003233222C22706172616D73223A7B000080
:10401000310000202274656D70223A7B2276616C3B
:104020007565223A25647D2C0000000032000020D6
:104030002268756D69223A7B2276616C7565223A39
:1040400025647D2C00000000280000207472756536
:104050000000000066616C73650000002262656507
:1040600070223A7B2276616C7565223A25737D2C2D
:10407000000000002F00002010B1AFF2280001E086
:10408000AFF238000246CFA1684604F0FDFA694657
:10409000204604F0B5FE3021684604F056FFCE48B5
:1040A0000278CEA1684604F0EFFA6946204604F093
:1040B000A7FE3021684604F048FFCE480278CEA122
:1040C000684604F0E1FA6946204604F099FECFA163
:1040D000204604F095FE204604F028FEC0B20CB045
:1040E00010BD30B5C5B0002041904290439044903F
:1040F00000240025C6A1CE48FEF785FE4FF480714E
:1041000001A804F022FF01A8FFF7E1FD0446002CFE
:1041100028D041A800232246AFF2B0210090AFF290
:10412000CC2001F000F9C8B908E001A8415D429A2D
:10413000501C429041988154681C05B2A542F4DBA2
:10414000429A91B2419801F038FDBAA1B848429A1A
:10415000FEF759FE41A800F013FE03E0B9A1B448F0
:10416000FEF751FE45B030BD70B588B005460C462F
:104170000020049005900690079023462A46B9A196
:10418000AB48FEF740FE204604F0D0FD064604A8EA
:104190000121002200923346CDE9012103902246FD
:1041A00029460A2000F0DDFF38B9059A91B204983B
:1041B00001F003FD04A800F0E3FD08B070BD00B5F8
:1041C00095B00020119012901390149003A80290C3
:1041D000AFF26830AFF28433AAA23821009003A86E
:1041E00004F068FA03AAAFA19148FEF70CFE11A8EB
:1041F000012302AA00210090142001F09EF938B991
:10420000129A91B2119801F0D8FC11A800F0B8FDF3
:1042100015B000BD2DE9F14F8EB000200D900C902F
:104220000B900A90099000250890079006900E9830
:1042300000F0EEFD0546032D04D0042D7ED0092D9F
:104240007DD197E09D4809A90AAA0DABCDE90021CF
:1042500002900BAA0CA90E9801F0A7FA08900898F2
:1042600000287DD10390BDF828000D99CDE90010FC
:10427000BDF82C3092A16E480C9AFEF7C4FD0D9843
:1042800002F004FC05909DA1059803F005F8049048
:104290009CA1049803F000F806469BA1049802F044
:1042A000FBFF07469AA1049802F0F6FF80469AA108
:1042B000049802F0F1FF814699A1049802F0ECFF06
:1042C00082469AA1049802F0E7FF834699A10498D8
:1042D00002F0E2FF04464EB1F068012803D100204D
:1042E000FEF7DCFE02E00120FEF7D8FE47B1F868D9
:1042F000012802D1FEF72AFC02E00020FEF726FC8E
:10430000B8F1000F03D098F814008C490870B9F187
:10431000000F0BD099F8140089490870874803787A
:104320000846027887A14248FEF76DFDBAF1000FFA
:1043300003D09AF814008E49087002E011E027E0DB
:104340000EE0BBF1000F03D09BF814008949087000
:1043500014B1207D88490870059801F095FD00BFD3
:1043600000BF0E9801F021FB18B984A13048FEF778
:104370004AFD11E00E9801F05FF920B987A12C48A1
:10438000FEF741FD03E08CA12948FEF73CFD03E068
:104390004FF0FF30089000BF00BF01F0C9FB089844
:1043A000401C10B90FB0BDE8F08F0F2D01D0032DC8
:1043B00005D10C9804F019F90D9804F016F900BF16
:1043C000F0E70000226C6564223A7B2276616C750E
:1043D00065223A25737D2C0035000020226C736520
:1043E0006E73223A7B2276616C7565223A25647D74
:1043F0002C000000360000202270706D223A7B22D3
:1044000076616C7565223A25647D00007D7D000033
:10441000546970733A094F6E654E65745F53656EEB
:1044200064446174612D4D5154540D0A0000000024
:104430000038014053656E6420256420427974651C
:10444000730D0A005741524E3A094544505F4E657C
:1044500077427566666572204661696C65640D0A0F
:10446000000000005075626C69736820546F7069B9
:10447000633A2025732C204D73673A2025730D0A6B
:1044800000000000247379732F25732F25732F7478
:1044900068696E672F70726F70657274792F7365BB
:1044A0007400000053756273637269626520546F13
:1044B0007069633A2025730D0A0000003C0000205B
:1044C000746F7069633A2025732C20746F70696370
:1044D0005F6C656E3A2025642C207061796C6F6189
:1044E000643A2025732C207061796C6F61645F6C75
:1044F000656E3A2025640D0A00000000706172614B
:104500006D7300006C6564006265657000000000FA
:1045100068756D695F74680074656D705F746800BC
:104520006C73656E735F74680000000070706D5F7F
:1045300074680000627269676874000033000020CC
:1045400034000020726563656976653A2E2E2E2E42
:1045500074656D705F3D7468256420432020687524
:104560006D695F74683D2564252552480D0A000079
:1045700037000020380000203A0000205469707392
:104580003A094D515454205075626C697368205338
:10459000656E64204F4B0D0A000000005469707373
:1045A0003A094D51545420537562736372696265C0
:1045B000204F4B0D0A000000546970733A094D51A9
:1045C0005454205375627363726962652045727238
:1045D0000D0A0000F0B50446142C06DA01EA0205C3
:1045E00023EA010685EA060019E0282C04DA81EAAC
:1045F000020787EA030012E03C2C0ADA01EA02050E
:1046000001EA030787EA050602EA030787EA0600CC
:1046100005E0502C03DA81EA020787EA0300F0BDC7
:104620000146142901DAFE480AE0282901DAFD488A
:1046300006E03C2901DAFC4802E0502900DAFB4898
:104640007047F0B5024601209040441EE54301EA60
:10465000050020FA02F601EA0400C2F1200C00FA7B
:104660000CF746EA07031846F0BDF0B50246C2F162
:10467000200C012000FA0CF0441EE54301EA04007E
:1046800000FA02F601EA0500C2F1200C20FA0CF74C
:1046900046EA07031846F0BD2DE9F04FDDB00746A6
:1046A0008A4615460AF1080909F101094FEACA00CC
:1046B0005B9048464FEAE97109EB91618E114846DB
:1046C0004FEAE97109EB91618911A9EB81115C91C4
:1046D0005C98002800DD761C5C98C0F140008144A5
:1046E000D04604E0002007F8080008F10108B8EB04
:1046F000861FF7DB802007F80A000121C1EB861135
:104700005B9878545B98C0F307200221C1EB8611B7
:1047100078545B98C0F307400321C1EB86117854AD
:104720005B98000E0421C1EB86117854C048569066
:10473000C0485790BE48C0435890BE48C0435990A7
:10474000BD485A904FF00008A5E0002452E0102C1C
:1047500032D24FEA881000EB8400385C000601A9D1
:1047600041F824004FEA881000EB8400401C385CBC
:1047700051F824104FF4803202FB001001A941F8D7
:1047800024004FEA881000EB8400801C385C51F84C
:104790002410121202FB001001A941F824004FEA74
:1047A000881000EB8400C01C385C51F824100844C9
:1047B00001A941F824001CE0502C1AD2E01E01AAE5
:1047C00052F82000A4F1080201AB53F82220504017
:1047D000A4F10E0253F822205040A4F1100253F825
:1047E000222080EA02010120FFF73FFF01A941F8E2
:1047F0002400641C502CAAD3569855905798549076
:1048000058985390599852905A98519000242AE001
:1048100005205599FFF729FF83462046529B539A5E
:104820005499FFF7D7FE58440090519900980844D6
:1048300000902046FFF7F4FE00990844009001A87C
:1048400050F82410009808440090529851905398C2
:1048500052901E205499FFF708FF5390559854909A
:1048600000985590641C502CD2D356995598084402
:10487000569057995498084457905899539808441B
:10488000589059995298084459905A995198084407
:104890005A9008F10108B045FFF657AF5698E870F6
:1048A0005698000AA8705698000C68705698000E2A
:1048B00028705798E8715798000AA8715798000C0B
:1048C00068715798000E28715898E8725898000A35
:1048D000A8725898000C68725898000E287259985F
:1048E000E8735998000AA8735998000C687359988E
:1048F000000E28735A98E8745A98000AA8745A98B7
:10490000000C68745A98000E28745DB0BDE8F08FF2
:104910002DE9F04FADF58E5D07460E46924698465E
:104920000DF58050D0F8E49140254FF0360B5C2116
:10493000C0F8BC11002405E0002041F27C1169445C
:104940000855641C402CF7DBAE421FD0AE4210DD90
:104950004A4631463846FFF79FFE002406E019F824
:10496000040041F27C1169440855641C142CF6DBE8
:1049700016E0AE4214DA002405E0385D41F27C1105
:1049800069440855641CB442F7DB09E0002405E0E3
:10499000385D41F27C1169440855641CAC42F7DB78
:1049A00000240AE041F27C106844005D80EA0B00BC
:1049B00041F23C1169440855641C402CF2DB002490
:1049C00006E041F23C106844005D1FA90855641CD4
:1049D000402CF6DB002406E01AF804101FAA04F1AC
:1049E00040001154641C4445F6DB08EB05014A46BF
:1049F0001FA8FFF751FE00240DE041F27C1169442D
:104A0000095D0DF58050D0F8BC01414041F2FC0237
:104A10006A441155641C402CEFDB002415E00000B3
:104A20009979825AA1EBD96EDCBC1B8FD6C162CAC0
:104A30000123456789ABCDEFF0E1D2C341F2FC0021
:104A40006844005D0AA90855641C402CF6DB00246C
:104A500006E019F804100AAA04F140001154641C7D
:104A6000142CF6DB4A4605F114010AA8FFF714FEE0
:104A70000DF58E5DBDE8F08F2DE9F04F07468946B4
:104A8000099C00250026AC46A846AA4600211CB970
:104A900000201060BDE8F08F0320B4FBF0F04FF071
:104AA000030BB4FBFBFE0BFB1E4BBBF1000F02D054
:104AB0004FF0010B01E04FF0000B00EB0B06B6F1DD
:104AC000804F05D34FF0FF3010606FF02900E1E711
:104AD000B600701C814500D327B9701C10606FF0C0
:104AE0002900D7E70320B4FBF0F000EB40060025D7
:104AF000394629E013F801CB13F8018B13F801AB09
:104B000087484FEA9C0B10F80B0001F8010B4FEAA5
:104B10000C1000EB281000F03F00DFF804B21BF887
:104B2000000001F8010B4FEA880000EBAA1000F02A
:104B30003F001BF8000001F8010B0AF03F001BF8D2
:104B4000000001F8010BED1CB542D3D3A5422DD2D4
:104B500013F801CB681CA04202D213F8010B00E04D
:104B6000002080466E48CCF3850B10F80B0001F84E
:104B7000010B4FEA0C1000EB281000F03F00DFF8AB
:104B8000A0B11BF8000001F8010B681CA04207D27D
:104B90003F2000EA88001BF8000001F8010B02E04A
:104BA0003D2001F8010B3D2001F8010BC81B1060EE
:104BB0000020087000BF6DE72DE9F04707468946E1
:104BC0009046DDF820C000210022002400260025A8
:104BD000002004460246014645E0002601E0491C4B
:104BE000761C614502D2585C2028F8D0614500D17E
:104BF0003BE0ACEB0100022807D3585C0D2804D140
:104C0000481C185C0A2800D12CE0585C0A2800D106
:104C100028E01EB16FF02B00BDE8F087585C3D28FE
:104C200006D1601C0446022802D96FF02B00F3E77E
:104C3000585C7F2806DC585CDFF8E8A01AF8000012
:104C40007F2802D16FF02B00E6E7585CDFF8D4A094
:104C50001AF80000402803DA14B16FF02B00DBE7EC
:104C6000521C00BF491C6145B7D300BF1AB90020D0
:104C7000C8F80000D0E7D00800EB40004FEA400A37
:104C800002F0070000EB40004000C01D0AEBD0021C
:104C9000121B0FB1914504D2C8F800206FF0290013
:104CA000BAE703240020064602463D4631E0187864
:104CB0000D2805D018780A2802D01878202800D1AD
:104CC00025E01878DFF85CA01AF80000402801D130
:104CD000012000E00020241A1878DFF848A01AF814
:104CE000000066F39F100646501C024604280DD1B2
:104CF000002214B1300C05F8010B012C02D9300A46
:104D000005F8010B022C01D905F8016B00BF491E03
:104D10005B1C0029CBD1E81BC8F8000000207BE712
:104D20001AC200085AC2000870B504460E46002593
:104D3000206898B901202073304603F027FC2060DA
:104D40002068E0B100206060A66003E000202168D8
:104D500048556D1CA068A842F8D810E002202073C6
:104D600003E00020216848556D1CA068A842F8D8CF
:104D700000206060A068B04201D20020206070BDB9
:104D800010B50446207B012802D1206803F02DFCD9
:104D9000002020606060A060207310BD02460023E8
:104DA00001230DE002F07F000870D2092AB10878D3
:104DB00040F080000870491C01E0184670475B1CF9
:104DC000042BEFDD4FF0FF30F8E7F0B504460D4659
:104DD0002646012300201060002114E0775C07F0D4
:104DE0007F07106807FB03001060705C00F0800014
:104DF00008B9481CF0BDDB01B3F5001F02D36FF00A
:104E00000100F7E7491CA942E8DB4FF0FF30F1E76A
:104E1000F8B50446FF2720780511012D01DB0E2D82
:104E200001DD3846F8BD032D24D1002000906A46EC
:104E30000421601CFFF7C9FF2044461C009802288B
:104E400003D3207800F0010008B1FF20EAE7707872
:104E5000317840EA0120801C0099884201D9FF2066
:104E6000E0E7F8A1B01C03F02BFF08B10F2700E02A
:104E7000032700E02F463846D4E72DE9FF4F83B0E3
:104E800082468B469146159C0025002002900F27F4
:104E90000190484603F04AFF0FFA80F8B9F1000F7D
:104EA00003D1012007B0BDE8F08F08F102003844BB
:104EB00087B2109808B145F00205129878B145F014
:104EC0000405129803F032FFC0B20290139803F069
:104ED0002DFF01460298001D0844384487B21198FE
:104EE00020B1012804D0022808D104E000BF07E067
:104EF00045F00C0504E045F0140501E00220D1E77F
:104F000000BF149808B145F02405BAF1000F02D093
:104F1000BBF1000F01D10320C4E745F0C0055046A6
:104F200003F004FF0646584603F000FF3044001D1E
:104F3000384487B239462046FFF7F6FE206808B9A4
:104F40000420AFE73946206803F0DDFF10216268D6
:104F5000501C606020688154D4E90023D118781F68
:104F6000FFF71CFF00B201900198002804DA2046E8
:104F7000FFF706FF052095E7616801980844606027
:104F800000216268501C60602068815404216268BE
:104F9000501C6060206881544D216268501C606024
:104FA0002068815451216268501C606020688154DF
:104FB00054216268501C6060206881546268501CF3
:104FC00060602068815404216268501C6060206821
:104FD00081546168481C6060206845540698010A45
:104FE0006268501C6060206881540698C1B2626893
:104FF000501C606020688154C8F307216268501C0F
:105000006060206881546268501C6060206800F80D
:105010000280D4E9001288184246494603F03EFE59
:1050200060684044606005F00400B8B3002613983F
:1050300008B986A01390129803F078FE86B2310A60
:105040006268501C6060206881546268501C606017
:1050500020688654D4E9001288183246129903F069
:105060001DFE606830446060139803F05FFE86B2F6
:10507000310A6268501C6060206881546268501C6C
:10508000606020688654D4E900128818324613996B
:1050900003F004FE60683044606000BF05F08000EB
:1050A000C8B1504603F042FE86B2310A6268501C15
:1050B0006060206881546268501C6060206886547B
:1050C000D4E9001288183246514603F0E7FD6068C3
:1050D0003044606000BF05F04000C8B1584603F09E
:1050E00025FE86B2310A6268501C606020688154D7
:1050F0006268501C606020688654D4E900128818E9
:105100003246594603F0CAFD60683044606000BF13
:105110000020C7E610B5044602212046FFF704FE32
:10512000206808B9012010BDE0216268501C606051
:105130002068815400216268501C6060206881549E
:105140000020F0E701464878022801D0012070478E
:10515000887810B18878012801D1C878F7E7FF2056
:10516000F5E72DE9FF4F83B0834617469946139C18
:10517000002500260020029001908046BBF1000F20
:1051800003D1012007B0BDE8F08F00260AE00498A3
:10519000805D232803D00498805D2B2801D1022054
:1051A000F0E7761C0498805D0028F0D148F03008C4
:1051B000119808B148F0010806EB0900851C109809
:1051C00020B1012804D002280AD105E000BF09E07F
:1051D00048F00208AD1C05E048F00408AD1C01E0F1
:1051E0000320CFE700BF67B33878022821D14FF002
:1051F000000A00BF50460AF1010A385C7D28F9D147
:10520000AAF1030A0AF1070002900298A9EB000A2A
:10521000E81CA0EB0A012046FFF786FD206808B9CC
:105220000420AFE7EA1CA2EB0A01206803F06BFE42
:105230001FE0691D2046FFF777FD206840B9042074
:10524000A0E70AE02463726571000000000000001E
:10525000691D206803F057FE0BE0691D2046FFF72B
:1052600063FD206808B904208CE7691D206803F0FD
:105270004AFE6168481C6060206800F80180D4E93B
:10528000000281182846FFF789FD01900198002847
:1052900004DA2046FFF774FD052073E76168019882
:1052A00008446060C6F307216268501C6060206893
:1052B00081546268501C606020688654D4E90012F2
:1052C00088183246049903F0E9FC60683044606055
:1052D000109860B14FEA1B216268501C6060206822
:1052E00081546268501C6060206800F802B0C7B149
:1052F000387802280BD1D4E9001288183946029A6E
:1053000003F08AFD616802980844606009E0D4E90E
:10531000001288184A46394603F07EFD606848440A
:10532000606000202EE72DE9F04190B004460D4664
:1053300016469846169F2346F7A2302104A80095EA
:1053400003F0B8F901200021CDE9000133460A46F7
:1053500004A9CDE902070A20FFF703FF18B10120D5
:1053600010B0BDE8F0810020FAE72DE9F04F85B0DC
:1053700080460D4691460120049000270026002417
:105380004FF0000A404603F0D1FC00F10D0B5846E7
:1053900003F0FCF807461FB9049805B0BDE8F08F8C
:1053A0004246E5A1384603F06FF9384603F0BEFCEB
:1053B000C6B2F01D00EB050AAAEB050003F0E6F803
:1053C000044624B9384603F010F90498E5E70220B2
:1053D000207000206070A67032463946E01C03F051
:1053E0001BFD290EF01C2154C5F30741301D21542B
:1053F000C5F30721701D2154B01D25540120002143
:10540000CDE9000153462246CFA1CDE902090A2089
:10541000FFF7A7FE08B900200490384603F0E5F82E
:10542000204603F0E2F80498B7E72DE9F8438046F8
:105430000C4615461E462F2108F1060003F024FCF9
:1054400007460020009017B90120BDE8F8837F1CB3
:105450006A46042108F10100FFF7B7FC252003F09C
:1054600095F82060206808B90220EEE72521206821
:1054700003F049FD24223946206803F0CDFC24378F
:1054800000982C3830803188481C03F07FF8286061
:10549000286820B9206803F0A8F80320D5E73288EF
:1054A000511C286803F02FFD32883946286803F024
:1054B000B3FC0020C9E72DE9FF5F07460D46904683
:1054C000384603F033FC86B2284603F02FFC1FFA5F
:1054D00080FA4FF00009F01D03F058F804461CB99B
:1054E000012004B0BDE8F09FF11D204603F00BFD44
:1054F00096A0016821608088A08032463946204607
:1055000003F0CCFB284603F011FC83460120002168
:1055100000915B462A46CDE90208019121460A2006
:10552000FFF71FFE10B94FF0000901E04FF001092D
:10553000204603F05AF84846D3E72DE9FF5F80463E
:10554000174699460E9C0026B246B3460025B8F190
:10555000000F03D1012004B0BDE8F09F0BE057F825
:10556000250008B90220F6E757F8250003F0DEFB16
:105570000644681CC5B24D45F1DB09EB4900801CAF
:1055800000EB060A0AF105012046FFF7CDFB206873
:1055900008B90320DFE782216268501C6060206840
:1055A0008154D4E9000281185046FFF7F7FB0FFA47
:1055B00080FBBBF1000F04DA2046FFF7E1FB04207B
:1055C000C9E76068584460604FEA18216268501C5F
:1055D0006060206881546268501C6060206800F838
:1055E0000280002524E057F8250003F09FFB0646C3
:1055F000C6F307216268501C6060206881546268AD
:10560000501C606020688654D4E90023D01857F8F5
:105610002510324603F042FB606830446060019818
:10562000C1B26268501C606020688154681CC5B2B9
:105630004D45D8DB00208EE70146FF208A78A2B9CD
:10564000CA78142A11D10A7932B1012A05D0022A66
:1056500004D0802A06D103E000BF00BF002003E091
:10566000012001E0022000BF00BF70472DE9F05F7C
:1056700080460F4691461C460026B246B34600259A
:10568000B8F1000F02D10120BDE8F09F0BE057F800
:10569000250008B90220F7E757F8250003F046FB7C
:1056A0000644681CC5B24D45F1DB022000EB490001
:1056B00000EB060A0AF105012046FFF735FB2068DA
:1056C00008B90320E0E7A2216268501C60602068EE
:1056D0008154D4E9000281185046FFF75FFB0FFAAE
:1056E00080FBBBF1000F04DA2046FFF749FB0420E2
:1056F000CAE76068584460604FEA18216268501C2D
:105700006060206881546268501C6060206800F806
:10571000028000253CE00000247379732F25732F4D
:1057200025732F7468696E672F70726F706572745D
:10573000792F706F737400007B2264735F69642239
:105740003A222573227D0000246470002463727362
:10575000702F000057F8250003F0E8FA0646C6F35C
:1057600007216268501C6060206881546268501C88
:10577000606020688654D4E90023D01857F82510BB
:10578000324603F08BFA606830446060681CC5B232
:105790004D45DFDB002077E7014601208A781AB902
:1057A000CA781E2A00D1002070472DE9FC5F81468F
:1057B0000D4614461E46DDE90C8B99F8000000F0FA
:1057C0000F0A002001900AF008000090CAF341007F
:1057D0008BF8000001AA042109F10100FFF7F5FA96
:1057E0004844471C0198022802D30AF0010010B176
:1057F000FF20BDE8FC9F7878397840EA01202080BE
:105800002088801C0199884201D9FF20F1E7AFF27E
:10581000CC51B81C03F054FA08B10F20E9E79BF80B
:10582000000020B101283DD0022877D13BE000984C
:1058300008B1FF20DDE72188481C02F0A7FE2860A0
:10584000286808B9FF20D4E72288511C286803F093
:105850005AFB2288B91C286803F0DEFA0198801EE2
:105860002188401AA8F80000B8F80010481C02F07F
:105870008DFE3060306820B9286802F0B6FEFF2047
:10588000B7E7B8F80020511C306803F03CFBB8F8CB
:105890000020B4F800C0BB1C0CEB0301306803F01F
:1058A000BBFA4FE000BF2088801C0199884201D9D3
:1058B000FF209EE72088C01C395C2088801C385C53
:1058C00041EA00210E9801800E9808B9FF2090E768
:1058D0002188481C02F05AFE2860286808B9FF2079
:1058E00087E72288511C286803F00DFB2288B91C29
:1058F000286803F091FA0198001F2188401AA8F83F
:105900000000B8F80010481C02F040FE306030681B
:1059100028B9286802F069FEFF206AE710E0B8F8AD
:105920000020511C306803F0EEFAB8F80020B4F8FB
:1059300000C03B1D0CEB0301306803F06DFA01E081
:10594000FF2056E700BF2B21284603F09DF920B920
:105950002321284603F098F908B1FF2049E70020E9
:1059600047E770B505460C4604212046FFF7DCF9F1
:10597000206808B9012070BD40216268501C606039
:105980002068815402216268501C60602068815444
:1059900029126268501C6060206881546268501C43
:1059A0006060206885540020E5E7014648780228B9
:1059B00001D001207047887820B9C8780A2801D121
:1059C0000020F7E70120F5E770B505460C460421F5
:1059D0002046FFF7A9F9206808B9012070BD5021C1
:1059E0006268501C60602068815402216268501C0B
:1059F00060602068815429126268501C60602068D1
:105A000081546268501C6060206885540020E5E77E
:105A100001464878022801D001207047887820B9D3
:105A2000C8780A2801D10020F7E70120F5E770B512
:105A300005460C4604212046FFF776F9206808B990
:105A4000012070BD62216268501C60602068815432
:105A500002216268501C60602068815429126268CB
:105A6000501C6060206881546268501C606020682F
:105A700085540020E5E702465078022801D0012035
:105A800070479078B0EB112F05D1D078CBB2984207
:105A900001D10020F4E70120F2E770B505460C467D
:105AA00004212046FFF740F9206808B9012070BDA5
:105AB00070216268501C6060206881540221626815
:105AC000501C60602068815429126268501C60601C
:105AD000206881546268501C6060206885540020F2
