:020000040800F2
:10000000581B0020950500088102000883020008A3
:100010008F0200089B020008A702000800000000F1
:10002000000000000000000000000000B302000813
:10003000B502000800000000AB050008B702000888
:10004000AF050008AF050008AF050008B9020008B9
:10005000AF050008AF050008D12F0008AF05000864
:10006000013000082F3000085F300008AF0500089D
:10007000AF050008AF050008AF050008AF05000890
:10008000AF050008AF050008AF050008AF05000880
:10009000AF050008AF050008AF050008AF05000870
:1000A000AF050008AF050008AF050008AF05000860
:1000B0000F3D0008AF050008AF050008AF050008B8
:1000C000AF050008AF050008AF050008AF05000840
:1000D000AF050008A32E0008B16D0008AF050008A9
:1000E000AF050008AF050008AF050008AF05000820
:1000F000AF050008AF050008AF050008AF05000810
:10010000AF050008AF050008AF050008AF050008FF
:10011000AF050008AF050008AF050008AF050008EF
:10012000AF050008AF050008AF050008AF050008DF
:1001300000F002F800F094F80AA090E8000C824465
:100140008344AAF10107DA4501D100F089F8AFF242
:10015000090EBAE80F0013F0010F18BFFB1A43F0A5
:1001600001031847842A0100A42A0100103A24BF81
:1001700078C878C1FAD8520724BF30C830C144BF0C
:1001800004680C607047000000230024002500264E
:10019000103A28BF78C1FBD8520728BF30C148BFEA
:1001A0000B6070476E290AF04980702909F0E783D7
:1001B00066290DF0B28565290DF0AF8567290DF030
:1001C000AC856129AFF3008003681B0A28BF41F0AA
:1001D0008001692909F05883642909F0558375293C
:1001E00009F052836F290AF04683782909F0B38316
:1001F000E9290AF0E182E4290AF0DE82F5290AF011
:10020000DB82EF290AF04383F82909F0B2830368FF
:10021000DB0928BF41F0800163290AF0628273295B
:100220000AF06782E3290AF03F84F3290AF0448444
:10023000002070471FB59DE8030009F053FF0AF046
:1002400079FB0400002000210CF034FC401C6060AD
:10025000002000210CF044FCE0601FBD10B510BD73
:100260000AF082FE1146FFF7E5FF04F064F90AF098
:10027000A0FE03B4FFF7F2FF03BC0AF011FF000079
:1002800070470EA11C4802F0E8FD00BFFEE71BA16D
:10029000194802F0E2FD00BFFEE727A1164802F070
:1002A000DCFD00BFFEE733A1134802F0D6FD00BF1E
:1002B000FEE7704770477047704700000D0A2A2A12
:1002C0002A2A2A2A2A2A2A2A2A2A2A2A2A2A2A2A8E
:1002D0002A486172644661756C745F48616E646C33
:1002E00065722A2A2A2A2A2A2A2A2A2A2A2A2A2AEB
:1002F0002A2A2A2A2A0D0A00003801400D0A2A2A31
:100300002A2A2A2A2A2A2A2A2A2A2A2A2A2A2A2A4D
:100310002A4D656D4D616E6167655F48616E646C05
:1003200065722A2A2A2A2A2A2A2A2A2A2A2A2A2AAA
:100330002A2A2A2A2A0D0A000D0A2A2A2A2A2A2AC1
:100340002A2A2A2A2A2A2A2A2A2A2A2A2A42757361
:100350004661756C745F48616E646C65722A2A2A06
:100360002A2A2A2A2A2A2A2A2A2A2A2A2A2A2A2AED
:100370000D0A00000D0A2A2A2A2A2A2A2A2A2A2AAB
:100380002A2A2A2A2A2A2A2A2A5573616765466157
:10039000756C745F48616E646C65722A2A2A2A2A19
:1003A0002A2A2A2A2A2A2A2A2A2A2A2A2A2A0D0AEA
:1003B000000000000CB50020019000906C4800681F
:1003C00040F480306A49086000BF6948006800F462
:1003D000003000900198401C0190009818B90198D5
:1003E000B0F5A06FF1D16248006800F4003010B1A0
:1003F0000120009001E0002000900098012843D1E6
:100400005C48006840F010005A49086008460068DF
:1004100020F0030008600846006840F00200086011
:10042000534840685249486008464068486008465A
:10043000406840F4806048600846406820F47C10C2
:1004400048600846406840F4E81048600846006884
:1004500040F08070086000BF4548006800F0007000
:100460000028F9D04248406820F003004049486025
:100470000846406840F00200486000BF3C484068C1
:1004800000F00C000828F9D10CBD10B5FFF792FF61
:1004900010BD10B53648006840F0010034490860CE
:1004A00008464068344908403149486008460068B9
:1004B000324908402E4908600846006820F4802030
:1004C00008600846406820F4FE0048604FF41F00B2
:1004D0008860FFF7DAFF4FF000602949086010BD1F
:1004E00010B5002100200022214B5B6803F00C01B5
:1004F00021B1042906D0082928D107E0214B224C3C
:10050000236027E01F4B204C236023E0184B5B68DF
:1005100003F47010164B5B6803F48032022303EB84
:10052000904022B9194B4343174C23600DE0104B08
:100530005B6803F4003323B1144B4343124C236034
:1005400003E0104B4343104C236003E00D4B0E4C73
:10055000236000BF00BF064B5B68C3F303130C4C62
:10056000E15C094B1B68CB40074C236010BD0000C9
:1005700000100240002002400000FFF8FFFFF6FEDE
:1005800008ED00E000127A000000002000093D00A4
:10059000040000200948804709480047FEE7FEE7BD
:1005A000FEE7FEE7FEE7FEE7FEE7FEE7FEE7FEE723
:1005B00004480549054A064B7047000093040008AB
:1005C0003101000858030020581B0020580F00205C
:1005D000580F002031490143314A1160704770B50E
:1005E000002100230F22C47804B32D4C246804F4A6
:1005F000E064C4F5E064210AC1F10403CA40447810
:1006000004FA03F18478144021430901254C06784B
:10061000A155047804F01F050124AC4005786D1144
:10062000AD0005F1E025C5F8004109E0047804F0CB
:100630001F050124AC401C4D0678761145F8264074
:1006400070BD1A4A0A400243154B1B1F1A607047BF
:1006500039B1134A121D12680243114B1B1D1A6057
:1006600006E00F4A121D126882430D4B1B1D1A60D3
:100670007047042808D14FF0E021096941F00401D6
:100680004FF0E022116107E04FF0E021096921F00D
:1006900004014FF0E0221161704700000000FA05EC
:1006A0000CED00E000E400E080E100E080FFFF1FCF
:1006B00010B50446CC48844208D10121042000F042
:1006C0002DFB0021042000F029FB46E0C7488442AE
:1006D00008D10121082000F021FB0021082000F0B2
:1006E0001DFB3AE0C248844208D10121102000F0ED
:1006F00015FB0021102000F011FB2EE0BD488442C4
:1007000008D10121202000F009FB0021202000F069
:1007100005FB22E0B848844208D10121402000F0C6
:10072000FDFA0021402000F0F9FA16E0B3488442B7
:1007300008D10121802000F0F1FA0021802000F092
:10074000EDFA0AE0AE48844207D10121801500F09D
:10075000E5FA0021A01500F0E1FA10BD10B5012165
:10076000084600F0DBFA0021012000F0D7FA10BDA6
:100770002DE9F04102460025002600200023002438
:10078000002791F803C00CF00F0591F803C00CF09E
:10079000100CBCF1000F03D091F802C04CEA050523
:1007A00091F800C0BCF1000F31D0146800202BE09C
:1007B0004FF0010C0CFA00F3B1F800C00CEA03068C
:1007C0009E4220D183004FF00F0C0CFA03F7BC437C
:1007D00005FA03FC4CEA040491F803C0BCF1280FAD
:1007E00006D14FF0010C0CFA00FCC2F814C00AE06C
:1007F00091F803C0BCF1480F05D14FF0010C0CFA81
:1008000000FCC2F810C0401C0828D1D31460B1F815
:1008100000C0BCF1FF0F34DD546800202EE000F171
:10082000080C4FF0010808FA0CF3B1F800C00CEA0C
:1008300003069E4221D183004FF00F0C0CFA03F700
:10084000BC4305FA03FC4CEA040491F803C0BCF174
:10085000280F05D100F1080C08FA0CF8C2F8148032
:1008600091F803C0BCF1480F07D100F1080C4FF01C
:10087000010808FA0CF8C2F81080401C0828CED3F2
:100880005460BDE8F0814FF6FF7101800221817054
:100890000421C17070470246002093680B400BB1E1
:1008A000012000E0002070470146886880B2704750
:1008B00002460020D3680B400BB1012000E000206D
:1008C00070470146C86880B2704701617047416156
:1008D00070470AB1016100E041617047C160704733
:1008E0004FF480320A438261816182618269826948
:1008F000704702460020434B18684FF6807318403B
:1009000040EA021008433F4B186070473E49C861F7
:100910007047F0B50A46002300240021002500F0AE
:100920000046B6F1004F02D1364EF16901E0354E76
:100930007168C0F3034583B200F44016B6F5401F5A
:1009400008D121F070612F4E766826F070662D4F29
:100950007E6012E000F48016B6F5801F06D10326F3
:1009600006FA05F4A14341F0706106E0460D360138
:1009700003FA06F6B14341F0706122B1460D36012B
:1009800003FA06F6314300F00046B6F1004F02D1FB
:100990001C4EF16101E01B4E7160F0BD30B50022CC
:1009A0008B071C0F0F2303FA04F2164B08338C102D
:1009B00053F824309343134C08348D1044F82530F9
:1009C00023468C1053F824308C07240F00FA04F4CB
:1009D00023430C4C08348D1044F8253030BD0A49AF
:1009E000DC3108607047000000080140000C014045
:1009F000001001400014014000180140001C01409B
:100A0000002001400000014000002042DF48006853
:100A100040F00100DD49086008464068DC490840B4
:100A2000DA49486008460068DA490840D749086052
:100A30000846006820F4802008600846406820F4DA
:100A4000FE0048604FF41F0088607047CF49096876
:100A500021F48031CD4A11601146096821F48021CA
:100A60001160B0F5803F03D0B0F5802F0ED106E0C5
:100A7000C649096841F48031C44A116007E0C3499E
:100A8000096841F4A021C14A116000E000BF00BF25
:100A9000704710B501460022002300204A11012AA8
:100AA00002D1BA4C236806E0022A02D1B74C236A6D
:100AB00001E0B64C636A01F01F02012494401C401F
:100AC0000CB1012000E0002010BD38B500200090DE
:100AD0000024002500BF3120FFF7DBFF054600980A
:100AE000401C00900098B0F5A06F01D0002DF2D00E
:100AF0003120FFF7CEFF08B1012400E0002420469A
:100B000038BD01460020A14A106820F0F80040EAF4
:100B1000C10010607047A04908607047024600207D
:100B20009A4B586820F47C1042EA01031843974B13
:100B30005860704798490866704701460020934AFC
:100B4000506820F003000843506070478F484068A9
:100B500000F00C007047014600208C4A506820F0DD
:100B6000F00008435060704701460020874A5068F3
:100B700020F4E06008435060704701460020834A3B
:100B8000506820F4605040EAC1005060704729B1BD
:100B90007E4A527A02437D4B5A7204E07B4A527A73
:100BA00082437A4B5A7270477B49D831086070474C
:100BB00001460020754A506820F4404008435060C8
:100BC00070470021714A20321170704A82F820105B
:100BD000012802D004280AD104E001216B4A203206
:100BE000117005E00521694A2032117000E000BF54
:100BF00000BF70476949086070476449096A01434A
:100C0000624A11627047654944390860704730B5DF
:100C100000210022002400235C4D6D6805F00C01CA
:100C200021B1042905D0082923D105E05C4D0560D8
:100C300022E05B4D05601FE0544D6D6805F47012B5
:100C4000524D6D6805F48034022505EB92421CB9C3
:100C5000544D554305600BE04C4D6D6805F400356F
:100C60001DB1504D5543056002E04D4D55430560A3
:100C700002E04B4D056000BF00BF444D6D6805F0BC
:100C8000F0010909484D6B5C0568DD4045603F4D4A
:100C90006D6805F4E061090A434D6B5C4568DD4011
:100CA00085603A4D6D6805F46051C90A3E4D6B5C34
:100CB0004568DD40C560354D6D6805F44041890BE0
:100CC0003A4D6B5CC568B5FBF3F5056130BD29B1E4
:100CD0002E4A526902432D4B5A6104E02B4A526955
:100CE00082432A4B5A61704729B1284A92690243CC
:100CF000264B9A6104E0254A92698243234B9A610C
:100D0000704729B1214AD2690243204BDA6104E0DD
:100D10001E4AD26982431D4BDA61704729B11B4AD2
:100D2000D2680243194BDA6004E0184AD268824361
:100D3000164BDA60704729B1144A12690243134B0B
:100D40001A6104E0114A12698243104B1A6170471C
:100D500012494039086070470F49C86470470B4911
:100D6000C87170470948406A40F08070074948627E
:100D7000704701460020054A92680A400AB10120E6
:100D800000E000207047014988727047001002405F
:100D90000000FFF8FFFFF6FE0000424280044242DE
:100DA00000127A0000093D001400002024000020F9
:100DB00010B50446FB48844209D101218803FFF79E
:100DC000ADFF00214FF48040FFF7A8FF32E0F64866
:100DD000844209D101214804FFF7ADFF00214FF4FF
:100DE0000030FFF7A8FF25E0F048844209D1012137
:100DF0008804FFF7A0FF00214FF48020FFF79BFF3E
:100E000018E0EB48844209D10121C804FFF793FFA1
:100E100000214FF40020FFF78EFF0BE0E5488442ED
:100E200008D101210805FFF786FF00214FF480104B
:100E3000FFF781FF10BD2DE9F04786B005460E464D
:100E40000024A24600BFA1460027B08900B100BF20
:100E50002F462C8A4CF6FF700440F08804432C8205
:100E6000AC894EF6F3100440B0883189084371898B
:100E700008430443AC81AC8A4FF6FF400440B0897C
:100E80000443AC8201A8FFF7C2FEC648874202D1E4
:100E9000DDF810A001E0DDF80CA0A88900F4004006
:100EA00040B10AEBCA0000EB0A1031684900B0FB00
:100EB000F1F807E00AEBCA0000EB0A10316889007C
:100EC000B0FBF1F86420B8FBF0F0040120096421C4
:100ED00001FB1089A88900F4004040B1322000EBEA
:100EE000C900B0FBF1F000F00700044308E0322035
:100EF00000EB09106421B0FBF1F000F00F00044397
:100F00002C8106B0BDE8F0874FF416510160002136
:100F10008180C18001810C21418100218181704744
:100F200010B502460020108A4FF2FF0318400B88CC
:100F30004C8823438C882343CC8823431843108256
:100F400010BD0021018041808180C180704721B1A6
:100F5000828942F40052828104E082894DF6FF7357
:100F60001A4082817047F0B5034600240026002510
:100F7000002040F66A17B94200D100BF1846C1F3FD
:100F8000421401F01F06012707FA06F5012C01D1D2
:100F90000C3004E0022C01D1103000E014301AB102
:100FA00007682F43076002E00768AF430760F0BDA2
:100FB0001AB1838A0B43838202E0838A8B43838244
:100FC0007047028A4FF6F0731A400282028A0A437F
:100FD0000282704782894FF2FF731A4082818289B0
:100FE0000A438281704721B1828942F002028281E4
:100FF00004E082894FF6FD731A4082817047028AAD
:101000004FF6DF731A400282028A0A430282704757
:1010100021B1028A42F48042028204E0028A4BF645
:10102000FF731A4002827047C1F308028280704742
:1010300001468888C0F308007047818941F00101AA
:1010400081817047028BD2B20283028B42EA012275
:1010500002837047028B02F47F420283028B0A43B1
:101060000283704721B1828A42F02002828204E02A
:10107000828A4FF6DF731A408282704721B1828ADA
:1010800042F01002828204E0828A4FF6EF731A4027
:101090008282704721B1828A42F00802828204E093
:1010A000828A4FF6F7731A408282704721B1828993
:1010B00042F40042828103E08289C2F30E028281FF
:1010C000704721B1828A42F40062828204E0828AFF
:1010D0004FF2FF731A4082827047828A4FF6FB7389
:1010E0001A408282828A0A438282704721B1828AB0
:1010F00042F00202828204E0828A4FF6FD731A40B7
:101100008282704702460020B1F5007F00D100BF07
:1011100013880B400BB1012000E00020704701F460
:101120000072B2F5007F00D100BFCA430280704751
:1011300070B50246002400230025002040F66A1600
:10114000B14200D100BFC1F3421501F01F030126D7
:1011500006FA03F3012D02D19689334006E0022DF1
:1011600002D1168A334001E0968A33400C120126E0
:1011700006FA04F41688344013B10CB1012000E0E3
:10118000002070BD10B50022002340F66A14A14271
:1011900000D100BF0A1201249440A3B2DC430480B2
:1011A00010BD0000003801400044004000480040ED
:1011B000004C004000500040002044490860091DD8
:1011C0000860091D0860091D086041483F49143145
:1011D0000860704700213D498279002A3AD00A46CA
:1011E000126803689A430B461A600A1D1268036866
:1011F0009A430B1D1A60027911440A6803681A4366
:101200000A60324A0832126803689A432F4B083347
:101210001A601A1D126803689A432C4B0C331A602B
:101220004279102A0ED11A1F126803681A43274BFD
:1012300008331A601A1D126803681A43234B0C33D3
:101240001A600DE02149427911440A6803681A4383
:101250000A6005E0027911440A6803689A430A604B
:1012600070470021016001710C21417100218171E1
:1012700070471649103109680143144A1032116051
:10128000704701460020114A143212680A400AB120
:10129000012000E0002070470C49143108607047BD
:1012A000014600200022094B1B6803EA0102074B9C
:1012B00014331B680B4013B10AB1012000E0002079
:1012C0007047024914310860704700000004014073
:1012D000FFFF0F0030B943F2DB028100A1F1C041F2
:1012E0000A6005E043F2D2028100A1F1C0410A6028
:1012F0006FF07042411C8900A1F1C0410A60810079
:10130000A1F1C041C1F80421704710280AD1182169
:101310004FF020421166402151664FF0FC3191663A
:10132000D16610E01821F74A116040214FF02042A9
:10133000C2F884104FF0FC31F24A083211604FF0CD
:101340002042C2F88C1070471820EE492031086006
:1013500000200906C1F8A4004FF0FC30E94928310B
:101360000860091D0860091D08607047D0E9011276
:101370001143C268114302691143426911438269F2
:101380001143C2691143026A1143426A1143826ADE
:101390001143C26A1143026B114302689200A2F129
:1013A000C0421160816808290BD101688900A1F150
:1013B000C041096841F0400201688900A1F1C041C3
:1013C0000A60416B0968426B526841EA0211426B44
:1013D000926841EA0221426B928941EA0241426BE2
:1013E000128A41EA0251426B127D41EA0261426B6C
:1013F000926911430268521C9200A2F1C04211602E
:10140000C16AB1F5804F1BD1816B0968826B52684C
:1014100041EA0211826B926841EA0221826B128AD0
:1014200041EA0251826B127D41EA0261826B92694C
:10143000114302689200A2F1C042C2F8041107E011
:101440006FF0704201688900A1F1C041C1F8042128
:10145000704730B5002100220023446844F008049E
:1014600085682C43C5682C4305692C43456944EACB
:101470004524856944EA4531C4692468C5696D68B5
:1014800044EA0524C5692D8944EA0544C5692D7BD4
:1014900044EA0562046A2468056A6D6844EA052422
:1014A000056A2D8944EA0544056A2D7B44EA0563F3
:1014B0000468102C05D14FF020442166A266E36633
:1014C00008E0904C21604FF02044C4F888208D4CF7
:1014D0000C34236030BD016841F01001426841EADC
:1014E0004221826841EA4231864A20321160C16855
:1014F0000968C268526841EA0221C268128941EA59
:101500000241C268127B41EA02617E4A28321160C0
:10151000016909680269526841EA02210269128977
:1015200041EA02410269127B41EA0261754A2C32AA
:101530001160416909684269526841EA02214269C1
:10154000128941EA02414269127B41EA02614FF08D
:101550002042C2F8B01070470021016002214160B2
:1015600000218160C160016141618161C1610162ED
:101570004FF480514162490081620021C1620163E0
:101580000F21426B1160426B5160FF21426B9160F1
:101590000F21426BD160426B1161426B516100219E
:1015A000426B91610F21826B1160826B5160FF2150
:1015B000826B91600F21826BD160826B1161826BB3
:1015C00051610021826B91617047102101600021FF
:1015D00041608160C160016141618161FC21C2693A
:1015E0001160C2695160C2699160C269D160026ACA
:1015F0001160026A5160026A9160026AD1607047AC
:101600000021016041608160FC21C2681160C268F4
:101610005160C2689160C268D1600269116002695C
:101620005160026991600269D1604269116042694A
:101630005160426991604269D160704751B1820046
:10164000A2F1C042126842F001038200A2F1C0423E
:10165000136009E08200A2F1C04212682A4B1A40CE
:101660008300A3F1C0431A60704799B1102808D1D4
:101670004FF02042126E42F004024FF020431A66EF
:101680001DE0204A126842F004024FF02043C3F8E4
:10169000802014E0102809D14FF02042126E1A4B1E
:1016A000DB1E1A404FF020431A6608E0154A126804
:1016B000154BDB1E1A404FF02043C3F880207047C3
:1016C00048B110492031096841F004014FF020422F
:1016D000C2F8A01009E00B49203109680A4AD21E5D
:1016E00011404FF02042C2F8A0107047B9B1102845
:1016F0000CD14FF02042126E42F040024FF02043D6
:101700001A661FE0800000A0FEFF0F00724A1268F8
:1017100042F040024FF02043C3F8802012E010282E
:1017200008D14FF02042126E6C4B1A404FF020430C
:101730001A6607E0684A1268684B1A404FF0204367
:10174000C3F88020704701460020102903D14FF0D4
:101750002042506F02E0604A14321068704710B5A2
:10176000F2B1102807D14FF020435B6E0B434FF0CE
:101770002044636632E0B0F5807F08D1564B1B1DD4
:101780001B680B434FF02044C4F8843026E0524BD2
:1017900024331B680B434FF02044C4F8A4301DE0F1
:1017A000102807D14FF020435B6E8B434FF020444D
:1017B000636613E0B0F5807F08D1474B1B1D1B68A3
:1017C0008B434FF02044C4F8843007E0424B24336D
:1017D0001B688B434FF02044C4F8A43010BD10B5F3
:1017E000024600200023102A03D14FF02044636EEC
:1017F00009E0B2F5807F03D1374C241D236802E055
:10180000354C2434236803EA01040CB1012000E0C4
:10181000002010BD102807D14FF02042526E8A439D
:101820004FF020435A6613E0B0F5807F08D12A4A72
:10183000121D12688A434FF02043C3F8842007E04A
:10184000254A243212688A434FF02043C3F8A4206B
:10185000704770B502460020002300240025102A9E
:1018600003D14FF02046736E09E0B2F5807F03D1BB
:10187000194E361D336802E0174E2436336803EAEA
:10188000010403EAD10514B10DB1012000E00020EC
:1018900070BD102808D14FF02042526E22EAD102CA
:1018A0004FF020435A6615E0B0F5807F09D10A4A0F
:1018B000121D126822EAD1024FF02043C3F884209F
:1018C00008E0054A2432126822EAD1024FF0204390
:1018D000C3F8A42070470000800000A0BFFF0F00E5
:1018E00010B50446FA48844208D101214015FFF79B
:1018F00015FA00216015FFF711FA17E0F548844248
:1019000008D101210015FFF709FA00212015FFF782
:1019100005FA0BE0F048844208D10121C803FFF723
:10192000FDF900214FF40040FFF7F8F910BD30B584
:101930000246002000235068E84C20400D790C68D6
:1019400044EA0524204350609068E54C2040D1E9EA
:1019500002542C434D7944EA450420439060D06AF8
:1019600020F470000C7C641EE4B2234340EA035070
:10197000D06230BD00210160017141718160C160A0
:1019800001210174704721B1826842F00102826036
:1019900003E0826822F001028260704721B1826810
:1019A00042F48072826003E0826822F48072826076
:1019B000704710B50023CBB21AB144681C43446091
:1019C00002E044689C43446010BD816841F0080116
:1019D00081607047014600208A6802F008020AB15F
:1019E000012000E000207047816841F0040181601F
:1019F0007047014600208A6802F004020AB1012003
:101A000000E00020704721B1826842F4A0028260A9
:101A100003E0826822F4A002826070470146002041
:101A20008A6802F480020AB1012000E000207047B9
:101A300010B50A4600210023416821F46041531E7D
:101A400041EA4331416010BD21B1426842F4006275
:101A5000426003E0426822F4006242607047F0B5E1
:101A600004460D4600200021092D11DDE068A5F196
:101A70000A0606EB4607072606FA07F18843A5F192
:101A80000A0606EB460603FA06F10843E0600CE09E
:101A9000206905EB4507072606FA07F1884305EBA1
:101AA000450603FA06F108432061072A0FDA606B46
:101AB000561E06EB86071F2606FA07F18843561EB8
:101AC00006EB860605FA06F10843606322E00D2A5C
:101AD0000FDA206BD61F06EB86071F2606FA07F1E2
:101AE0008843D61F06EB860605FA06F108432063F5
:101AF00010E0E06AA2F10D0606EB86071F2606FA43
:101B000007F18843A2F10D0606EB860605FA06F1F9
:101B10000843E062F0BD21B1826842F48012826025
:101B200003E0826822F48012826070470146C86C2C
:101B300080B2704766484C300068704721B14268F7
:101B400042F48062426003E0426822F480624260B4
:101B5000704721B1426842F48052426003E042681B
:101B600022F48052426070470A460021816821F4C5
:101B7000E04111438160704721B1826842F4004224
:101B8000826003E0826822F400428260704721B1E3
:101B9000826842F40212826003E0826822F4021238
:101BA00082607047014600208A6802F400120AB180
:101BB000012000E000207047F0B5044615460020E3
:101BC00000220026092911DDE068A1F10A0707EBD0
:101BD000470C072707FA0CF29043A1F10A0707EB1D
:101BE000470703FA07F21043E0600CE0206901EBBD
:101BF000410C072707FA0CF2904301EB410703FA67
:101C000007F210432061A06BC0F30156EF1C06F1F0
:101C1000010CA7EB0C0707EB870C1F2707FA0CF248
:101C20009043EF1C06F1010CA7EB0C0707EB8707AD
:101C300001FA07F21043A063F0BD10B50A46002177
:101C40000023816B21F44011531E41EA035181634B
:101C500010BD08B5002300930090009B0B44009337
:101C6000009B1A6008BD08B5024600200090009253
:101C700001F12800009B184400900098006880B291
:101C800008BD0A4600214168164B194011434160C6
:101C900070474162826270470A460021416821F024
:101CA0001F0111434160704740B10949083109687B
:101CB00041F40001064A0832116007E00449083186
:101CC000096821F40001024A0832116070470000DF
:101CD0000024014000280140003C0140FFFEF0FFCD
:101CE000FDF7F1FFFFFD3FFF0246002013680B40A8
:101CF0000BB1012000E000207047CA43026070472A
:101D000070B502460020002300240B125568CEB2A5
:101D100005EA060415681D4015B10CB1012000E06C
:101D2000002070BD00220A12D343036070470000F8
:101D300010B50446FE48844208D10121C014FEF7C4
:101D4000EDFF0021E014FEF7E9FFC4E0B4F1804F9D
:101D500008D101210846FEF7EEFF00210120FEF721
:101D6000EAFFB8E0F348844208D101210220FEF7DF
:101D7000E2FF00210220FEF7DEFFACE0EE488442E5
:101D800008D101210420FEF7D6FF00210420FEF730
:101D9000D2FFA0E0E948844208D101210820FEF7E3
:101DA000CAFF00210820FEF7C6FF94E0E448844201
:101DB00008D101211020FEF7BEFF00211020FEF700
:101DC000BAFF88E0DF48844208D101212020FEF7D5
:101DD000B2FF00212020FEF7AEFF7CE0DA4884420B
:101DE00008D101214014FEF799FF00216014FEF78D
:101DF00095FF70E0D548844209D10121C804FEF75F
:101E00008DFF00214FF40020FEF788FF63E0D048EB
:101E1000844209D101210805FEF780FF00214FF41B
:101E20008010FEF77BFF56E0CA48844209D10121A9
:101E30004805FEF773FF00214FF40010FEF76EFF18
:101E400049E0C548844208D101214020FEF773FFD4
:101E500000214020FEF76FFF3DE0C048844208D1DA
:101E600001218020FEF767FF00218020FEF763FF3D
:101E700031E0BB48844208D101218015FEF75BFFA9
:101E80000021A015FEF757FF25E0B648844209D18E
:101E900001210804FEF742FF00214FF48030FEF7D5
:101EA0003DFF18E0B048844209D101214804FEF703
:101EB00035FF00214FF40030FEF730FF0BE0AB4858
:101EC000844208D101218804FEF728FF00214FF445
:101ED0008020FEF723FF10BD00220288944B984219
:101EE0000ED0994B98420BD0B0F1804F08D0914B57
:101EF000984205D0904B984202D0904B984204D122
:101F00004FF68F731A404B881A438D4B984207D077
:101F10008C4B984204D04FF6FF431A40CB881A43AB
:101F200002808B8883850B880385814B98420BD078
:101F3000854B984208D08B4B984205D08A4B9842EB
:101F400002D08A4B984201D10B7A03860123838207
:101F5000704770B5002400220023058C4FF6FE76F2
:101F600035400584028C8388048B4FF68F752C4096
:101F7000B51E2C400D882C43751E2A400D892A431E
:101F80004D882A436A4DA8420BD06F4DA84208D015
:101F9000744DA84205D0744DA84202D0734DA8429A
:101FA00013D14FF6F7752A404D892A434FF6FB753A
:101FB0002A408D882A434FF6FF652B404FF6FF5588
:101FC0002B408D892B43CD892B4383800483CD887F
:101FD0008586028470BD70B5002400220023058C24
:101FE0004FF6EF7635400584028C8388048B48F6E3
:101FF000FF752C404FF6FF452C400D884FF6FF76BD
:1020000006EA05252C434FF6DF752A400D8906EABE
:1020100005152A434D8806EA05152A43444DA84272
:1020200002D0494DA8421DD14FF67F752A404D89F7
:102030004FF6FF7606EA05152A434FF6BF752A408C
:102040008D8806EA05152A434FF6FF352B404FF2DF
:10205000FF752B408D8906EA85052B43CD8906EA5D
:1020600085052B4383800483CD880587028470BD5A
:1020700070B5002400220023058C4FF6FF66354022
:102080000584028C8388848B4FF68F752C404FF625
:10209000FC752C400D882C434FF6FF552A400D89C6
:1020A0004FF6FF7606EA05252A434D8806EA052500
:1020B0002A431F4DA84202D0234DA8421DD14FF202
:1020C000FF752A404D894FF6FF7606EA05252A431B
:1020D0004FF6FF352A408D8806EA05252A434EF63D
:1020E000FF752B404DF6FF752B408D8906EA0515CF
:1020F0002B43CD8906EA05152B4383808483CD8845
:102100008587028470BD70B5002200230024058CF1
:102110004EF6FF7635400584038C8488828B48F622
:10212000FF752A404FF6FF452A400D8820E0000049
:10213000002C01400004004000080040000C00405A
:10214000001000400014004000340140004C0140E9
:10215000005001400054014000180040001C0040A5
:102160000020004000400140004401400048014080
:102170004FF6FF7606EA05252A434DF6FF752B40FC
:102180000D8906EA05352B434D8806EA05352B43B4
:10219000FA4DA84202D0FA4DA84208D14BF6FF757D
:1021A0002C408D894FF6FF7606EA85152C438480F6
:1021B0008283CD88A0F84050038470BD828B4FF29B
:1021C000FF331A408283828B4FF6FF7303EA0123A9
:1021D0001A4382837047F0B50C4615460022002151
:1021E0000026078C4EF6FF7C07EA0C070784828BDB
:1021F000018C4FF6FF7707EA043640F6FF473A4076
:102200004FF6FF7707EA05273A434FF6FF7707EACD
:1022100003373A43D94FB8420ED0D94FB8420BD00A
:10222000B0F1804F08D0D74FB84205D0D64FB84252
:1022300002D0D64FB84206D14DF6FF77394046F46A
:102240008057394305E047F6FF57394044F480573B
:10225000394382830184F0BD828B4FF6F3731A40B9
:102260008283828B0A4382837047F0B50C46154601
:10227000002200210026078C4FF6FF6C07EA0C07AE
:102280000784828B018C4FF6FF7707EA04264FF60E
:102290000C773A404FF6FF7707EA03172F433A438C
:1022A000B64FB8420ED0B64FB8420BD0B0F1804F07
:1022B00008D0B44FB84205D0B34FB84202D0B34FA4
:1022C000B84206D14FF6FF57394046F4807739437C
:1022D00005E04FF2FF57394044F480773943828359
:1022E0000184F0BD028B4FF2FF331A400283028B50
:1022F0004FF6FF7303EA01231A4302837047F0B5D8
:102300000C461546002200210026078C4FF6EF7C74
:1023100007EA0C070784028B018C4FF6FF7707EA68
:10232000041640F6FF473A404FF6FF7707EA0337B7
:102330003A434FF6FF7707EA05273A438F4FB842F3
:102340000ED08F4FB8420BD0B0F1804F08D08D4FD8
:10235000B84205D08C4FB84202D08C4FB84206D15B
:102360004FF6DF77394046F01007394305E04FF666
:102370005F77394044F01007394302830184F0BD90
:10238000028B4FF6F3731A400283028B0A430283D7
:102390007047F0B50C46154600220021068C4FF61A
:1023A000FE773E400684028B018C4FF60C7632405D
:1023B0007E1C06EA03162E433243704EB0420ED006
:1023C0006F4EB0420BD0B0F1804F08D06D4EB0428E
:1023D00005D06D4EB04202D06C4EB04206D14FF6E1
:1023E000FD76314044F00106314305E04FF6F576C5
:1023F000314044F00106314302830184F0BD70B5E1
:1024000005460C465D4885420ED05D4885420BD09E
:10241000B5F1804F08D05B48854205D05A488542C7
:1024200002D05A48854200D100E000BF208850B950
:102430002389A28861882846FFF7ABFFE1882846F8
:10244000FFF79EFF25E0208804280AD12389A2886F
:1024500061882846FFF753FFE1882846FFF742FFCF
:1024600017E0208808280AD12389A2886188284695
:10247000FFF7FBFEE1882846FFF7EEFE09E023891F
:10248000A28861882846FFF7A6FEE1882846FFF764
:1024900095FE70BD2DE9F04105460C46002601274A
:1024A000608808B9022600E00026A088012801D132
:1024B000022700E001272088A0B92389A28861882B
:1024C0002846FFF766FFE1882846FFF759FF238972
:1024D0003A4631462846FFF712FFE1882846FFF7C3
:1024E00001FF13E02389A28861882846FFF707FFD0
:1024F000E1882846FFF7F6FE23893A46314628460A
:10250000FFF747FFE1882846FFF73AFFBDE8F08173
:102510000A884B881A438B881A43CB881A430B8945
:102520001A434B891A438B891A43A0F844207047F9
:102530004FF6FF71818000210180C18041800172CE
:1025400070470021018041808180C18001814181EB
:102550008181C181704700210180418001218180FA
:102560000021C1800181704700210180418081806C
:10257000C18001814181818170470000002C0140B0
:10258000003401400004004000080040000C0040FE
:1025900021B1028842F00102028004E002884FF675
:1025A000FE731A400280704731B1B0F8442042F403
:1025B0000042A0F8442005E0B0F84420C2F30E0227
:1025C000A0F8442070471AB183890B43838102E04D
:1025D00083898B43838170478182704741EA02037C
:1025E000A0F8483070471AB183890B43838102E019
:1025F00083898B438381704701894FF6F8721140BC
:10260000018170470A46002101894FF68F731940F6
:1026100011430181704730B504460D4629462046D6
:10262000FFF7F0FF208940F00700208130BD2DE941
:10263000F04104460D4616461F46602D06D13B4626
:10264000012231462046FFF75AFE05E03B460122B3
:1026500031462046FFF79DFE29462046FFF7D2FF70
:10266000208940F007002081BDE8F08130B50C469C
:1026700000210189C9B24FF6FF7505EA032515430C
:1026800025432943018130BD2DE9F04105460E4621
:1026900017469846002443463A4631462846FFF7F7
:1026A000E5FF2C894FF6F870044044F007044FF61C
:1026B0008F70044044F070042C81BDE8F081F0B5C7
:1026C00004460D4616461F463B46324629462046DE
:1026D000FFF7CCFF208940F480402081F0BD0185C8
:1026E000828270470A46002101884FF68F73194095
:1026F000114301807047F0B50C4615461E46002177
:10270000002200230189028B038C4FF6F8773940B1
:1027100021434FF6FC473A4040F201173A434FF647
:10272000DD773B404FF6FF7707EA06172F433B4321
:10273000018102830384F0BD0A460021018B4FF61C
:102740008F7319401143018370470A460021018BA2
:1027500048F6FF7319404FF6FF7303EA022319434B
:10276000018370470A460021818B4FF68F73194011
:102770001143818370470A460021818B48F6FF731D
:1027800019404FF6FF7303EA022319438183704710
:1027900021B1028842F08002028004E002884FF6F4
:1027A0007F731A400280704721B1828842F0040290
:1027B000828004E082884FF6FB731A408280704763
:1027C00021B1828842F00802828004E082884FF6BC
:1027D000F7731A408280704721B1828842F001026B
:1027E000828004E082884FF6FE731A408280704730
:1027F0000A460021018B4FF6F773194011430183FC
:1028000070470A460021018B4FF2FF7319404FF6C3
:10281000FF7303EA02231943018370470A4600212C
:10282000818B4FF6F77319401143818370470A4635
:102830000021818B4FF2FF7319404FF6FF7303EABB
:1028400002231943818370470A460021018B4FF60A
:10285000FB7319401143018370470A460021018B25
:102860004FF6FF3319404FF6FF7303EA0223194373
:10287000018370470A460021818B4FF6FB73194094
:102880001143818370470A460021818B4FF6FF3345
:1028900019404FF6FF7303EA0223194381837047FF
:1028A0000A460021018B4FF67F73194011430183C3
:1028B00070470A460021018BC1F30E014FF6FF73EA
:1028C00003EA02231943018370470A460021818BE2
:1028D0004FF67F7319401143818370470A460021E8
:1028E000818BC1F30E014FF6FF7303EA02231943F4
:1028F000818370470A460021018C4FF6FD73194011
:102900001143018470470A460021018C4FF6F7738A
:1029100019401143018470470A460021018C4FF68B
:10292000DF7319404FF6FF7303EA02131943018462
:1029300070470A460021018C4FF67F7319404FF60D
:10294000FF7303EA02131943018470470A4600210A
:10295000018C4FF6FF5319404FF6FF7303EA022331
:102960001943018470470A460021018C4FF2FF731E
:1029700019404FF6FF7303EA02231943018470479D
:102980000A460021018C4DF6FF7319404FF6FF7384
:1029900003EA023319430184704730B50023012450
:1029A0008C40A3B2048C9C430484048C02FA01F58D
:1029B000ADB22C43048430BD30B5002304248C40D8
:1029C000A3B2048C9C430484048C02FA01F5ADB2DA
:1029D0002C43048430BD70B5034600200024184603
:1029E000183001258D40ACB21D8CA5431D8409B162
:1029F000082909D100EB6100056825F07005056024
:102A00000568154305600EE00D1FC5F34E0528440B
:102A1000056825F4E045056005684FF6FF7606EA8F
:102A200002263543056070BD21B1028842F00202E2
:102A3000028004E002884FF6FD731A40028070475E
:102A400021B1028842F00402028004E002884FF6BD
:102A5000FB731A400280704721B1828842F08002E5
:102A6000828004E082884FF67F731A40828070472C
:102A700002884FF6F7731A40028002880A430280E8
:102A8000704782884FF68F731A40828082880A438B
:102A90008280704702894FF6F8731A4002810289DA
:102AA0000A430281704702894FF67F731A40028100
:102AB00002890A430281704781847047818570478B
:102AC000818670470187704781877047A0F8401062
:102AD000704702884FF6FF431A40028002880A437B
:102AE000028070470146888E70470146088F704704
:102AF0000146888F70470146B1F840007047014693
:102B0000888C70470146088D704702460020138A62
:102B10000B400BB1012000E000207047CA43028245
:102B2000704730B50246002000230024158A05EACC
:102B30000103958905EA010413B10CB1012000E0FD
:102B4000002030BDCA4302827047000010B5044621
:102B500024B900212148FFF7B7FF25E0204800787D
:102B600030B1012809D002280CD0032816D10FE07B
:102B700032211A48FFF7A8FF15E0C8211748FFF7D0
:102B8000A3FF10E04FF496711448FFF79DFF0AE091
:102B90004FF4C8711148FFF797FF04E000210F4878
:102BA000FFF792FF00BF00BF0E48047010BD08B5CC
:102BB00001210820FEF798F810208DF8030000018D
:102BC000ADF8000003208DF8020069460648FDF7C5
:102BD000CFFD0020FFF7BAFF08BD0000000800404D
:102BE0004900002028000020000C01404FF0E020A8
:102BF000006920F004004FF0E02108610920364907
:102C000008700846007800EB4001C1EBC0104FF699
:102C1000FF7101EAC000314908807047002120F0AF
:102C20007F402D4A127842434FF0E0235A61002240
:102C30009A6101221A6100BF4FF0E022116901F090
:102C400001021AB101F48032002AF5D000224FF0BF
:102C5000E0231A619A617047002100B9704720F0A3
:102C60007F401E4A128842434FF0E0235A610022FF
:102C70009A6101221A6100BF4FF0E022116901F050
:102C800001021AB101F48032002AF5D000224FF07F
:102C9000E0231A619A6100BFE0E770B504460026A0
:102CA00000254FF4FA7094FBF0F0C6B24FF4FA70BE
:102CB00094FBF0F100FB114085B205E04FF4FA708F
:102CC000FFF7CAFF701EC6B2002EF7D115B1284615
:102CD000FFF7C2FF70BD00002A0000202C0000207A
:102CE00010B586B0044601210420FDF7FDFF012147
:102CF0008803FDF7F9FF18208DF817004FF40070D6
:102D0000ADF8140003208DF8160005A96B48FDF7F7
:102D10002FFD04208DF817000002ADF814000320E9
:102D20008DF8160005A96548FDF722FD01940020E5
:102D3000ADF810000C20ADF80E000020ADF80C002E
:102D4000ADF80A00ADF8080001A95D48FEF773F878
:102D500001215B48FEF7FBF8012240F2255158485B
:102D6000FEF701F925208DF8000001208DF8030001
:102D700000208DF8010002208DF802006846FDF762
:102D80002EFC06B010BD10B586B00446012104200B
:102D9000FDF7AAFF01214804FDF7B3FF18208DF8C5
:102DA00017000420ADF8140003208DF8160005A9C3
:102DB0004248FDF7DDFC04208DF817000820ADF82F
:102DC000140003208DF8160005A93C48FDF7D0FC3F
:102DD00001940020ADF810000C20ADF80E0000208A
:102DE000ADF80C00ADF80A00ADF8080001A93548AF
:102DF000FEF721F801213348FEF7A9F8012240F23D
:102E000025513048FEF7AFF826208DF8000001204C
:102E10008DF8030000208DF801008DF8020068464F
:102E2000FDF7DDFB06B010BD2DE9F04107460C466D
:102E3000154600260DE014F8011B3846FEF7F4F89D
:102E400000BF40213846FEF75DF90028F9D0701C1C
:102E500086B2AE42EFDBBDE8F0810FB430B5CBB047
:102E6000054601AC50A800904FF4947101A8009B56
:102E70004F9A06F06DFC002000900BE014F8011B47
:102E80002846FEF7D1F800BF40212846FEF73AF960
:102E90000028F9D020780028F0D14BB030BC5DF884
:102EA00014FB10B540F225510548FEF741F918B161
:102EB00020210348FEF733F910BD0000000801404F
:102EC00000380140004400401FB501214420FDF7B7
:102ED0000BFF01210846FDF707FF0120ADF80C00AC
:102EE00028208DF80F0003208DF80E0003A98C48D0
:102EF000FDF73EFC1C20ADF80C0048208DF80F00BB
:102F000003A98848FDF734FC00210846FDF746FD7B
:102F100002210420FDF742FD03210420FDF73EFDC0
:102F200004210846FDF73AFD0120009000208DF8AD
:102F3000040008208DF8050001208DF80600684681
:102F4000FEF748F91C20009000208DF804000C20AA
:102F50008DF8050001208DF806006846FEF73AF965
:102F600006208DF8080001208DF809008DF80A0070
:102F70008DF80B0002A8FDF732FB08208DF8080041
:102F800002208DF809008DF80A0001208DF80B0051
:102F900002A8FDF724FB09208DF8080003208DF816
:102FA00009008DF80A0001208DF80B0002A8FDF73A
:102FB00016FB0A208DF8080003208DF809008DF813
:102FC0000A0001208DF80B0002A8FDF708FB1FBDC9
:102FD00010B50A20FFF740FE01215148FDF75BFCC8
:102FE000012809D15048007818B9012000F0AAF84A
:102FF00002E0002000F0A6F80120FEF762F910BD03
:1030000010B50A20FFF728FE04214648FDF743FCCF
:1030100048B94648007818B903204449087002E0CE
:103020000020424908700420FEF74BF910BD10B58E
:103030000A20FFF711FE08213A48FDF72CFC50B991
:103040003B480078012803D10020FFF77FFD02E014
:103050000120FFF77BFD0820FEF733F910BD10B506
:103060000A20FFF7F9FD10212E48FDF714FC48B99E
:103070003048007818B902202E49087002E000207C
:103080002C4908701020FEF71CF910BD10B504463D
:10309000012C01D1284908702748007801282AD13D
:1030A0002648006801280AD02548006838B124481D
:1030B000001F006818B1224808380068D8B90A20F3
:1030C000FFF7CAFD00201C4908701C480068012851
:1030D00000D110BD1A48006808B90220F9E7184865
:1030E000001F006808B90320F3E715480838006896
:1030F000A0B90420EDE71148006878B910480068CD
:1031000001280BD10E48001F0068012806D10C4889
:1031100008380068012801D1074908700020D8E765
:1031200000080140001801402F0000204B00002043
:10313000280000204A0000202E000020000121422B
:103140001001234210B50446012C04D10021264869
:10315000FFF7B8FC25E02548007830B1012809D0F8
:1031600002280CD0032816D10FE031211E48FFF7AA
:10317000A9FC15E0C7211C48FFF7A4FC10E040F2B1
:1031800067111948FFF79EFC0AE040F2F311164858
:10319000FFF798FC00BF00211348FFF793FC00BF26
:1031A00000BF1348047010BD08B501210820FDF7C9
:1031B0009BFD2020ADF8000010208DF803000320B7
:1031C0008DF8020069460B48FDF7D2FA0120FFF79F
:1031D000B9FF08BD10B50446224620210648FDF778
:1031E00078FB0648047010BD000400404800002031
:1031F0002F000020000C014000180140300000208A
:1032000008B54FF40060ADF8000048208DF80300C9
:1032100069466348FDF7ACFA08BD10B50024FFF716
:10322000EFFF04E0601CC4B20120FFF7F7FC5D482B
:10323000006808B1642CF5DB642C01DB012010BDB3
:10324000002404E0601CC4B20120FFF7E7FC5548ED
:10325000006808B9642CF5DB642C01DB0120EEE783
:103260000020ECE708B54FF40060ADF80000102036
:103270008DF8030003208DF8020069464848FDF7E9
:1032800077FA08BD10B5FFF7EDFF00204549803102
:1032900008601420FFF701FD01204349C1F8AC018B
:1032A0001E20FFF7BBFC10BD08B501210802FDF789
:1032B0001BFD4FF40060ADF8000010208DF80300F6
:1032C00003208DF8020069463548FDF751FA4FF4A6
:1032D00000613348FDF7F9FAFFF7D4FFFFF79DFFD0
:1032E00008BD10B5002404E0601CC4B20120FFF743
:1032F00095FC2C48006808B1642CF5DB002404E040
:10330000601CC4B20120FFF789FC2648006808B998
:10331000642CF5DB2820FFF781FC2248006808B107
:10332000012010BD0020FCE770B50024002506E058
:103330006006040EFFF7D5FF0443681CC5B2082DD4
:10334000F6DB204670BD7CB505460E46FFF79AFFBA
:10335000FFF763FFF8B9002405E0FFF7E5FF0DF87C
:103360000400601CC4B2052CF7DB9DF800009DF83A
:10337000011008449DF8021008449DF80310084409
:103380009DF80410884208D19DF8000030709DF827
:103390000200287001E001207CBD0020FCE7000055
:1033A000002001402C0124420000244200B587B0D7
:1033B00001218020FDF798FC0121C803FDF794FC52
:1033C0000121C803FDF7AAFC00214FF40040FDF7DE
:1033D000A5FC4FF48070ADF8180000208DF81B009C
:1033E00006A93248FDF7C4F93148FEF779FA002002
:1033F00001908DF808008DF809004FF460200390CB
:103400000020049001208DF8140001A92848FEF73F
:103410008EFA01212648FEF7B6FA2548FEF7D5FABE
:1034200000BF2348FEF7D6FA0028FAD12048FEF75D
:10343000DBFA00BF1E48FEF7DCFA0028FAD107B01D
:1034400000BD10B504460723012221461848FEF7A7
:1034500006FB01211648FEF7D6FA00BF02211448E8
:10346000FEF742FC0028F9D01148FEF75FFB10BDC3
:1034700070B50024002508E00620FFF7E2FF0444B1
:103480000520FFF70AFC681CC5B20A2DF4DB0A20F0
:10349000B4FBF0F4B4F57A6F01D94FF47A642820C4
:1034A000B4FBF0F0C0F16400C0B270BD001C01407C
:1034B000003C014000B587B001214FF40170FDF7D9
:1034C00013FC01214802FDF729FC00214FF4007094
:1034D000FDF724FC4FF40040FDF76AFB2020ADF817
:1034E000180000208DF81B0006A95248FDF740F98E
:1034F0005148FEF7F5F9002001908DF808008DF88D
:1035000009004FF4602003900020049001208DF802
:10351000140001A94848FEF70AFA01214648FEF7BF
:1035200032FA4548FEF751FA00BF4348FEF752FA17
:103530000028FAD14048FEF757FA00BF3E48FEF790
:1035400058FA0028FAD107B000BD10B50446072389
:10355000012221463848FEF782FA01213648FEF75B
:1035600052FA00BF02213448FEF7BEFB0028F9D012
:103570003148FEF7DBFA10BD2DE9F04F89B0002489
:10358000A3464FF07C5008904FF0000A0AE0052057
:10359000FFF7DBFF04440520FFF77FFB0AF1010082
:1035A00000F0FF0ABAF10A0FF1DB0A20B4FBF0F4D5
:1035B000204609F0A1FD4FF06632204BCDE906010F
:1035C00009F0EAFD074609F0A1FA83461C4D594669
:1035D0001C480AF02DFB804659460AF07BF9074645
:1035E00008990AF059FA064630460AF0E5F8CDE99E
:1035F000020128460AF0E0F8134A144BCDE9000115
:1036000009F0CAFD0746DDE9022309F06DFB104A07
:10361000104BCDE9040108F0EBFCCDE9060109F0FF
:1036200075FA814648460AF017FAC0B209B0BDE8FB
:10363000F08F0000000801400024014066664A3F08
:10364000E17AD4400000A040A089B0E1E91527400C
:1036500014D044D8F0F4E43F30B589B005460C46A8
:1036600001210820FDF740FB01210220FDF749FB65
:1036700001210846FDF738FB2020ADF804000320A7
:103680008DF8060018208DF8070001A93848FDF7CD
:103690006FF801213748FDF73CF9ADF81C50ADF843
:1036A00018400020ADF81E00ADF81A0006A93248F7
:1036B000FEF712FC6020ADF808000220ADF8100003
:1036C0000120ADF80A0002A92B48FEF784FC08216E
:1036D0002948FFF796F801212748FFF759F80121FB
:1036E0002548FEF755FF09B030BD30B589B0054615
:1036F0000C4601210820FDF7F7FA01210420FDF70F
:1037000000FB4FF48070ADF8040003208DF8060034
:1037100018208DF8070001A91548FDF729F8ADF824
:103720001C50ADF818400020ADF81E00ADF81A008E
:1037300006A91248FEF7D0FB6020ADF80800002073
:10374000ADF810000120ADF80A0002A90B48FEF701
:103750008FFC08210948FFF761F801210748FFF7AE
:1037600017F801210548FEF713FF09B030BD00002E
:10377000000C014000081A0000040040000800404E
:1037800030B589B005460C4601210820FDF7ACFA9A
:1037900001210420FDF7B5FA4020ADF80400032014
:1037A0008DF8060018208DF8070001A91548FCF7D0
:1037B000DFFFADF81C50ADF818400020ADF81E003A
:1037C000ADF81A0006A91048FEF786FB6020ADF898
:1037D00008000020ADF810000120ADF80A0002A991
:1037E0000948FEF7B6FB08210748FFF701F8012159
:1037F0000548FEF7CDFF01210348FEF7C9FE09B0D9
:1038000030BD0000000C0140000800401FB5012140
:103810000846FDF776FA41F61F40ADF8040042F283
:103820000F70ADF808000020ADF80A00ADF80600F2
:1038300001A94FF08040FEF74FFB0122114690078F
:10384000FEF7C1FE1C208DF8000000208DF801005D
:1038500001208DF802008DF803006846FCF7BFFEDA
:1038600001218807FEF794FE1FBD10B500F06EFB26
:103870000020FE490870FFF7C9FF00F055FB01204A
:10388000FB49086010BD70B500240DE0002507E07D
:1038900000231A462946204600F09EFB681CC5B24C
:1038A000052DF5DB601CC4B2052CEFDB70BD2DE9E6
:1038B000F04F89B000247CE04FF0000974E004EB85
:1038C0004401EC4A128802EB410109EB490201EB89
:1038D000420009F0FAFB0746E74AE84B09F05CFCB6
:1038E000054609F013F90890089809F065FFCDE93D
:1038F000020109F069F807460022E14B09F04CFC8F
:1039000082460022DF4B09F033F9054609F0B0FB8F
:10391000C0B20790089809F04FFFDB4ADB4BCDE9B6
:10392000000109F025F9054609F04EF80746002286
:10393000D34B09F031FC82460022D24B09F018F932
:10394000CDE9020109F094FBC0B20690089809F095
:1039500033FF0746CC4ACE4B09F00AF9CDE9000106
:1039600009F032F805460022C54B09F015FC8246E5
:103970000022C44B09F0FCF8CDE9020109F078FB04
:10398000C0B2059007980104059841EA0020069905
:1039900008430490012221464846049B00F01CFB8A
:1039A00009F1010000F0FF09B9F1050F87DB601C88
:1039B000C4B2052C80DB09B0BDE8F08F2DE9F04FD3
:1039C00089B000247CE04FF0000974E004EB44016E
:1039D000B04A128802EB410109EB490201EB4200B7
:1039E00009F073FB0746A44AA44B09F0D5FB054632
:1039F00009F08CF80890089809F0DEFECDE9020184
:103A000008F0E2FF074600229D4B09F0C5FB824605
:103A100000229C4B09F0ACF8054609F029FBC0B226
:103A20000790089809F0C8FE974A984BCDE9000125
:103A300009F09EF8054608F0C7FF07460022904BA4
:103A400009F0AAFB824600228E4B09F091F8CDE9DD
:103A5000020109F00DFBC0B20690089809F0ACFE17
:103A60000746894A8A4B09F083F8CDE9000108F03E
:103A7000ABFF05460022824B09F08EFB82460022F6
:103A8000804B09F075F8CDE9020109F0F1FAC0B2F6
:103A9000059006980104079841EA0020059908431B
:103AA0000490012249462046049B00F095FA09F152
:103AB000010000F0FF09B9F1050F87DB601CC4B2FB
:103AC000052C80DB09B0BDE8F08F2DE9F04F89B0FF
:103AD000002478E004EB44016F4A128802EB4100B5
:103AE00009F0F3FA0746644A644B09F055FB0546B2
:103AF00009F00CF80890089809F05EFECDE9020183
:103B000008F062FF074600225D4B09F045FB824644
:103B100000225C4B09F02CF8054609F0A9FAC0B266
:103B20000790089809F048FE574A584BCDE9000124
:103B300009F01EF8054608F047FF07460022504BE3
:103B400009F02AFB824600224E4B09F011F8CDE91C
:103B5000020109F08DFAC0B20690089809F02CFE17
:103B60000746494A4A4B09F003F8CDE9000108F03D
:103B70002BFF05460022424B09F00EFB8246002235
:103B8000404B08F0F5FFCDE9020109F071FAC0B22F
:103B9000059006980104079841EA0020059908431A
:103BA00004904FF0000909E0012221464846049B99
:103BB00000F012FA09F1010000F0FF09B9F1050F58
:103BC000F2DB601CC4B2052C84DB09B0BDE8F08FC9
:103BD0002DE9F04F89B0002493E004EB44012F4A13
:103BE000128802EB410009F070FA0746224A234B83
:103BF00009F0D2FA054608F089FF0890089809F004
:103C0000DBFDCDE9020108F0DFFE074600221C4B78
:103C100009F0C2FA824600221A4B08F0A9FF0546B5
:103C200009F026FAC0B20790089809F0C5FD164AB7
:103C3000164BCDE9000108F09BFF054608F0C4FED5
:103C4000074600220E4B09F0A7FA824600220D4BD0
:103C500008F08EFFCDE9020109F00AFAC0B2069021
:103C6000089809F0A9FD0746074A19E04B00002013
:103C7000940123423E000020FF8D50466FCBCA3F87
:103C800000C05F4000006040BF58F28B25BF00407D
:103C900025BF10403C0000203A00002038000020E2
:103CA0004E4B08F065FFCDE9000108F08DFE05469A
:103CB00000224B4B09F070FA82460022494B08F073
:103CC00057FFCDE9020109F0D3F9C0B2059006987B
:103CD0000104079841EA00200599084304904FF039
:103CE000000909E0012249462046049B00F074F9CE
:103CF00009F1010000F0FF09B9F1050FF2DB601CCA
:103D0000C4B2052CFFF669AF09B0BDE8F08F10B55D
:103D100001218807FEF705FF00285BD032480078B4
:103D200030B101280DD002281DD003284DD13AE032
:103D30002E48007820B100F0F7F800202B490870D9
:103D400043E02B48007828B9FFF742FF01202849BB
:103D5000087004E0FFF7B9FE002025490870012033
:103D60002249087031E02348007828B900F027F98B
:103D700001202049087012E01E480078012805D172
:103D800000F003F902201B49087008E01948007888
:103D9000022804D100F006F900201649087002201C
:103DA0001249087011E01248007828B9FFF706FEA2
:103DB00001200F49087004E0FFF779FD00200C494D
:103DC000087003200949087000BF00BF012188075F
:103DD000FEF7B8FE01200849086010BD25BF10405D
:103DE00000C05F40000060404B0000204C000020FD
:103DF00036000020370000209401234210B5202116
:103E0000FE48FCF764FD5020FEF708FF10BD10B51A
:103E10002021FA48FCF759FD00BF00BF00BF00BFDA
:103E200000BF00BF00BF00BF00BF00BF00BF00BF9A
:103E30002021F248FCF74BFD00BF00BF00BF00BFD0
:103E400000BF00BF00BF00BF00BF00BF00BF00BF7A
:103E500000BF00BF00BF00BF00BF00BF00BF00BF6A
:103E600000BF00BF00BF00BF00BF00BF00BF00BF5A
:103E700000BF00BF00BF00BF10BD10B52021DF484C
:103E8000FCF723FD00BF00BF00BF00BF00BF00BFA5
:103E900000BF00BF00BF00BF00BF00BF00BF00BF2A
:103EA00000BF00BF00BF00BF00BF00BF00BF00BF1A
:103EB00000BF00BF00BF00BF00BF00BF00BF00BF0A
:103EC00000BF00BF2021CD48FCF701FD00BF00BFAF
:103ED00000BF00BF00BF00BF00BF00BF00BF00BFEA
:103EE00000BF00BF10BD70B5044600250BE004F014
:103EF000800010B1FFF7C1FF01E0FFF788FF600607
:103F0000040E681CC5B2082DF1DB70BD70B5064605
:103F10000C4615463046FFF7E6FF2046FFF7E3FF65
:103F20002846FFF7E0FF70BD10B5002406E0002230
:103F300011461046FFF7EAFF601CC4B2192CF6DBED
:103F4000FFF75CFF0A20FEF7A8FE10BD08B50121AF
:103F50004020FCF7C9FE2020ADF8000010208DF8AD
:103F6000030003208DF802006946A448FCF700FC1A
:103F70002021A248FCF7A9FCFFF7D6FF08BD00BF2F
:103F8000011EA0F10100FBD1704710B5002406E02E
:103F90000022FF211046FFF7B9FF601CC4B2192CA4
:103FA000F6DB10BD10B5002406E000221146FF200C
:103FB000FFF7ACFF601CC4B2192CF6DB10BD10B5C6
:103FC000002406E0FF2200210846FFF79FFF601C47
:103FD000C4B2192CF6DB10BD2DE9F04704460D469E
:103FE0009146984600260027FFF79EFFB9F1000F83
:103FF00016D0C8F3074004EB8401814A11444855A8
:10400000C8F3072104EB84027D4819301044415560
:1040100004EB84027A483230104400F8058012E044
:10402000002004EB8401764A11444855002104EB3A
:104030008402734819301044415504EB84027048DF
:1040400032301044415500261BE0002715E007EBF5
:10405000870C6B4B323363449A5D07EB8703DFF8C1
:10406000A0C16344995D07EB870C654B193363442A
:10407000985DFFF74BFF781CC7B2052FE7DB701C7C
:10408000C6B2052EE1DBBDE8F0872DE9FF4F85B014
:1040900081468A460020039083460798A0EB0905D5
:1040A0000898A0EB0A06CDF80890CDF804A0002DE2
:1040B00001DD012705E00DB9002702E04FF0FF37D1
:1040C0006D42002E02DD4FF0010806E016B94FF0F8
:1040D000000802E04FF0FF387642B54201DD2C4681
:1040E00000E03446002004901FE0019AD1B2029A09
:1040F000D0B20122129BFFF76FFF03982844039070
:10410000B3440398A04205DD0398001B0390029876
:1041100038440290A34504DDABEB040B0198404406
:1041200001900498401C80B20490611C049888425D
:10413000DBDD09B0BDE8F08F2DE9F84305460E46FA
:1041400017469846089C33463A463146284600941E
:10415000FFF79BFF43462A46314628460094FFF767
:1041600094FF43463A46414628460094FFF78DFFA8
:1041700043463A46314638460094FFF786FFBDE88D
:10418000F8832DE9F04706460F4690469A460024EC
:1041900045460320A0EB480951E07A1BD1B2321901
:1041A000D0B253460122FFF717FF3A1BD1B2721962
:1041B000D0B253460122FFF70FFF3A19D1B272195C
:1041C000D0B253460122FFF707FF7A19D1B2321954
:1041D000D0B253460122FFF7FFFE7A19D1B2321B4B
:1041E000D0B253460122FFF7F7FE3A19D1B2721B43
:1041F000D0B253460122FFF7EFFE03E00018014062
:104200006C0000207A1BD1B2321BD0B2534601227F
:10421000FFF7E2FE3A1BD1B2721BD0B25346012225
:10422000FFF7DAFE641CB9F1000F03DAA000801D6D
:10423000814404E0601B80000A3081446D1EAC4262
:10424000ABDDBDE8F0872DE9F047074688464FF023
:104250000009002400250026A24600BF30E007EB3D
:1042600087001949084410F804A04FF0000922E023
:104270000AF0800030B14346012231462846FFF75C
:10428000ABFE05E04346002231462846FFF7A4FE78
:104290004FEA4A604FEA106A701CC6B2052E06D17A
:1042A0000026681CC5B2052D01D1BDE8F08709F1D3
:1042B000010000F0FF09B9F1050FD9DB601CC4B2A1
:1042C000052CCCDB00BFF0E70EDE00081CB5FEF7C6
:1042D0008DFC4FF4A060FCF77DF94FF4E130FEF760
:1042E000FFFC4FF4E130FEF74EFDFEF75DFFFEF7F9
:1042F0005EFCFEF7E9FDFFF759F8FFF7DBF8472111
:104300004FF4FA70FFF7A8F90120FEF71BFF4721D1
:104310004FF4FA70FFF734FA0021FE48FEF7D0FBA5
:1043200047214FF4FA70FFF7E0F90021F948FEF752
:10433000CBFBFFF79AFA04F066FC0020F6490880F0
:1043400007E0F6A1FB48FEF788FD4FF4FA70FEF790
:1043500083FCFEF7A9FF0028F3D1F7A1F548FEF78B
:104360007CFDFAA00C21CDE90010FE4843880288AC
:104370000A21084605F09CF81CBD1FB5FA480078D4
:104380000A2190FBF1F03030C0B28DF80C00F648F5
:10439000007890FBF1F201FB12003030C0B28DF8D2
:1043A0000D0000208DF80E00F0A01821CDE90010BE
:1043B000EC48438802881E210A2005F079F803A8FA
:1043C0001821CDE90010E748438802881E21AA2061
:1043D00005F06EF8E9A01821CDE90010E148438806
:1043E00002881E21C82005F063F8E54800780A21FC
:1043F00090FBF1F03030C0B28DF80800E048007852
:1044000090FBF1F201FB12003030C0B28DF80900D0
:1044100000208DF80A00DBA01821CDE90010D1485A
:104420004388028846210A2005F042F802A8182194
:10443000CDE90010CB48438802884621AA2005F028
:1044400037F8D3A01821CDE90010C6484388028868
:104450004621C82005F02CF8CE4800780A2190FBB0
:10446000F1F03030C0B28DF80800CA48007890FBF7
:10447000F1F201FB12003030C0B28DF809000020CB
:104480008DF80A00C4A01821CDE90010B548438872
:1044900002886E210A2005F00BF802A81821CDE948
:1044A0000010B048438802886E21AA2005F000F869
:1044B000BBA01821CDE90010AA48438802886E21CC
:1044C000C82004F0F5FFB74800780A2190FBF1F00E
:1044D0003030C0B28DF80800B248007890FBF1F29D
:1044E00001FB12003030C0B28DF8090000208DF8B9
:1044F0000A00ADA01821CDE900109A48438802882F
:1045000096210A2004F0D4FF02A81821CDE900105A
:104510009448438802889621AA2004F0C9FFA4A0E9
:104520001821CDE900108F48438802889621C820C1
:1045300004F0BEFF1FBD1CB500264FF49677002483
:1045400000BF002500BFFFF7C1FEFFF716FF02F016
:10455000EBFB98A17748FEF780FC03E04FF4FA707C
:10456000FEF77AFB9AA19CA002F07FFB0028F5D110
:10457000A5A17048FEF771FC03E04FF4FA70FEF756
:104580006BFB00F0B4FB0028F7D100F099FE2EE29F
:10459000701C80B20646B8425ADB79497248FEF771
:1045A000D2FEFEF765FF7B490870FEF7E5FF7D4907
:1045B00008700846007877490978CDE900107048FE
:1045C00003786948027897A15A48FEF746FCA1484B
:1045D0000078A1490978CDE90010A0480378A048E7
:1045E0000278A0A15348FEF738FCA7480278A7A19B
:1045F0005048FEF732FCA8480278A8A14D48FEF7C3
:104600002CFC87A14B48FEF728FCA7480278A7A1FD
:104610004848FEF722FCA8480278A8A14548FEF7C2
:104620001CFCA9480278A9A14248FEF716FCAA483A
:104630000278AAA13F48FEF710FCABA13D48FEF767
:104640000CFC00F0D8FDFFF798FE02F0EFFA002610
:10465000002002F047FB054615B1284600F05BFE3E
:10466000AB480078012807D18B48007820B90CB9F5
:10467000282401E0601E84B23B480078784909781C
:10468000884211DC3E4800787449097888420BDC86
:104690004048007870490978884205DC4148007834
:1046A0006C490978884214DD0120994908707649DF
:1046B000097809B9012100E000210846FEF742FD12
:1046C0000C27F020FEF7E9FA9CB90120FEF73EFA2C
:1046D0000FE08F48007801280BD1002400208C497E
:1046E00008700120FEF72EFD0020FEF72FFA4FF490
:1046F00096776548007840B96B48007830B101285A
:1047000005D0022804D0032804E11CE104E108E1FB
:104710000CE10000000800406000002044485431D3
:104720003120436865636B204572726F72210D0AF8
:104730000000000000380140204861726477617217
:104740006520696E6974204F4B0D0A0048617264E0
:104750007761726520696E6974204F4B2E2E2E0D85
:104760000A000000640000204000002074656D70A5
:10477000657261747572653A0000000043000000C4
:104780004100002068756D69646974793A00000021
:1047900025000000440000206C73656E733A000031
:1047A0004C78000045000020736D6F6B653A000087
:1047B00070706D00436F6E6E656374204D5154547C
:1047C00073205365727665722E2E2E0D0A0000003E
:1047D000434F4E4E4543540041542B43495053548C
:1047E0004152543D22544350222C226D71747473F3
:1047F0002E6865636C6F7564732E636F6D222C3148
:104800003838330D0A0000004D515454732053655D
:104810007276657220436F6E6E6563747465642092
:104820000D0A000074656D703D25642043202068EA
:10483000756D693D2564202525524820204C7365FF
:104840006E733D2564206C78202070706D3D25646A
:10485000200D0A00470000204600002042000020F2
:104860004300002025645F5F5F5F5F25645F5F5FDB
:104870005F5F5F5F25645F5F5F5F5F5F5F5F5F25B7
:1048800064200D0A000000002F0000204C45443A2F
:1048900025640D0A00000000280000204245455014
:1048A0003A25640D0A000000480000206272696722
:1048B00068743A25640D0A0049000020536F756E34
:1048C000643A2564200D0A004A0000205370656593
:1048D000643A25640D0A00004B0000204D6F6465AA
:1048E0003A25640D0A0000002B2B2B2B2B2B2B2B96
:1048F0002B2B2B2B2B2B2B2B2B2B2B2B2B2B2B2B08
:104900002B2B2B2B2B2B2B2B2B2B0D0A00000000E2
:104910004D00002016D10FE031213548FEF7D2F8C6
:1049200010E0C7213248FEF7CDF80BE040F26711E6
:104930002F48FEF7C7F805E040F2F3112C48FEF7C8
:10494000C1F800BF00BF2B480078012825D12A48B4
:10495000007830B1012809D002280CD0032816D1E4
:104960000FE032212548FEF7AFF815E0C8212348B3
:10497000FEF7AAF810E04FF496712048FEF7A4F86D
:104980000AE04FF4C8711D48FEF79EF804E00021CC
:104990001A48FEF799F800BF00BF1948007830B1F7
:1049A000012809D002280DD0032817D110E00021DA
:1049B0001248FEF785F816E04FF496710F48FEF79F
:1049C0007FF810E04FF4C8710C48FEF779F80AE060
:1049D00040F2F3110948FEF773F804E0002107489C
:1049E000FEF76EF800BF00BF0A20FEF756F9CFE5CC
:1049F000000400402800002049000020000800407A
:104A00004A000020F0B58BB0054600260024284659
:104A100005F00AFAC7B20DB11C2F02DA01200BB063
:104A2000F0BD06E0A85D01A988550020A855701CBE
:104A3000C6B2BE42F6DB002001A98855002600243C
:104A400055E001A8805D2B2810D008DC202814D068
:104A500023282ED0252825D026283FD130E02F2806
:104A600012D03D2833D03F2838D114E02819FDA1B9
:104A700005F044FAE01CC4B236E02819FAA105F0AA
:104A80003DFAE01CC4B22FE02819F8A105F036FA6F
:104A9000E01CC4B228E02819F5A105F02FFAE01CAB
:104AA000C4B221E02819F3A105F028FAE01CC4B231
:104AB0001AE02819F0A105F021FAE01CC4B213E0B5
:104AC0002819EEA105F01AFAE01CC4B20CE028196E
:104AD000EBA105F013FAE01CC4B205E001A8805D6B
:104AE0002855601CC4B200BF00BF701CC6B2BE42D5
:104AF000A7DB0020285500BF91E72DE9F04FC9B092
:104B000005460C4616461F460DF5A47898E8000F9A
:104B10000020489055B14CB1DA48864206D32FB1F7
:104B2000B9F1000F02D0BAF1780F03DA012049B0D1
:104B3000BDE8F08F402118A805F085FA384605F049
:104B400073F905903B4648AA4021009018A801F04F
:104B5000B1F8482106A805F076FABBF1000F09D09C
:104B6000C9A03346CAA248218DE8310006A804F046
:104B70001FFE09E0C4A03346CBA248218DE81101F5
:104B8000039506A804F014FE402128A805F05BFA5E
:104B900006A805F049F9059018A805F045F9049014
:104BA00028A8009006AA18A8DDE9041300F02EFF3B
:104BB00000204890402138A805F045FA28A805F0C3
:104BC00033F9059028AB48AA4021009038A800F09E
:104BD000D1FF38A8FFF716FFBBF1000F0CD038A8A3
:104BE000A9A12B46B8A2CDE90046CDE90210514655
:104BF000484604F0DDFD0CE038A8A3A12B46C04ACE
:104C0000CDE901860094CDE903105146484604F0F1
:104C1000CFFD00208BE72DE9F041ACB001270D2539
:104C20000026002405F1F00004F02EFD06461EB912
:104C300038462CB0BDE8F08103E04FF4FA70FEF77F
:104C40000BF8B0A1B1A002F010F80028F5D10120B6
:104C5000902108AA0023CDE90032CDE90210B5A3C6
:104C6000C04AC1A1C3A0FFF748FFC5A10D20CDE9EF
:104C7000000105F1F00108ABC24A304604F098FD8E
:104C8000304605F0D1F81FFA80F84146304602F070
:104C900012F8FA2002F026F8044624B1BAA1204600
:104CA00005F08CF80446CCB100200390B94803A964
:104CB00004ABB94ACDE90010B849204604F02EFFF4
:104CC00004280AD1B348039904ABB34ACDE90010D4
:104CD000B3A1BB48FEF7C1F8002700BF304604F07F
:104CE00002FDB8A1B8A001F0C0FF3846A1E730B579
:104CF000B3B000202F903090319032900125A02148
:104D000007AA9FA3CDE90032CDE9021089A3954AF5
:104D100095A198A0FFF7F1FE07A893A398A2AEA1D2
:104D20000090A748FEF799F82FA80021029103915F
:104D3000CDE90410084601214FF4167390A2CDE985
:104D4000001007A988A001F016F9002842D1309A76
:104D500091B22F9801F0AFFFFA2001F0C3FF044693
:104D6000002C33D0204601F0D1F802282ED1204665
:104D700001F066FA062823D2DFE800F003090E13DB
:104D8000181DA1A18E48FEF768F800251DE0A3A11B
:104D90008B48FEF762F818E0A7A18948FEF75DF896
:104DA00013E0AEA18648FEF758F80EE0B3A18448A0
:104DB000FEF753F809E0BAA18148FEF74EF804E087
:104DC000C2A17F48FEF749F800BF00BF2FA801F03D
:104DD00055F803E0C4A17A48FEF73FF8284633B0FF
:104DE00030BD10B58CB004463021684605F02BF973
:104DF000C6A1204604F0F4FF3021684605F023F9EF
:104E0000C8480278C8A1684604F0BCFC6946204640
:104E100005F074F83021684605F015F9C8480278A5
:104E2000C8A1684604F0AEFC6946204605F066F865
:104E30003021684605F007F9C848007808B1C8A0D5
:104E400000E0C9A00246CAA1684604F09BFC69467E
:104E5000204605F053F83021684605F0F4F8CA48BA
:104E6000007893E125324200253230002532460099
:104E700025334600253235002532330025323600F1
:104E8000253344009554415D736861310000000092
:104E900025640A25730A70726F64756374732F2515
:104EA000730A25730000000025640A25730A7072D6
:104EB0006F64756374732F25732F646576696365FA
:104EC000732F25730A25730076657273696F6E3DC3
:104ED0002573267265733D70726F647563747325F4
:104EE00025324625732665743D2564266D657468F4
:104EF0006F643D2573267369676E3D25730000005E
:104F0000102B0108434F4E4E4543540041542B4350
:104F1000495053544152543D22544350222C223183
:104F200038332E3233302E34302E3333222C383077
:104F30000D0A00004D6B785A656B4E48515456303F
:104F400056465656626B744F59554A355548493244
:104F500057564D3063466F786130517A5132673D14
:104F60000000000000CF9D74366A30383555734B11
:104F700068710000323031382D31302D333100006E
:104F800064310000582B01086465766963655F69C8
:104F900064000000C7000020B7000020C42A0108F8
:104FA000637265617465206465766963653A20257E
:104FB000732C2025732C2025642C2025730D0A00CA
:104FC000003801404F4B000041542B434950434CA3
:104FD0004F53450D0A0000004F6E654E45545F4427
:104FE00065764C696E6B0D0A4E414D453A2025732E
:104FF0002C0950524F49443A2025732C094B4559EE
:105000003A25730D0A000000546970733A09C1AC67
:10501000BDD3B3C9B9A60D0A000000005741524ED6
:105020003A09C1ACBDD3CAA7B0DCA3BAD0ADD2E9AE
:10503000B4EDCEF30D0A00005741524E3A09C1AC0F
:10504000BDD3CAA7B0DCA3BAB7C7B7A8B5C4636C51
:1050500069656E7469640D0A000000005741524E84
:105060003A09C1ACBDD3CAA7B0DCA3BAB7FECEF132
:10507000C6F7CAA7B0DC0D0A000000005741524E27
:105080003A09C1ACBDD3CAA7B0DCA3BAD3C3BBA78E
:10509000C3FBBBF2C3DCC2EBB4EDCEF30D0A0000E0
:1050A0005741524E3A09C1ACBDD3CAA7B0DCA3BA2E
:1050B000B7C7B7A8C1B4BDD328B1C8C8E7746F6B70
:1050C000656EB7C7B7A8290D0A0000004552523ACD
:1050D00009C1ACBDD3CAA7B0DCA3BACEB4D6AAB4BA
:1050E000EDCEF30D0A0000005741524E3A094D51E2
:1050F00054545F5061636B6574436F6E6E65637487
:10510000204661696C65640D0A0000007B226964B9
:10511000223A22313233222C22706172616D732265
:105120003A7B0000400000202274656D70223A7BBB
:105130002276616C7565223A25647D2C00000000A2
:10514000410000202268756D69223A7B2276616CED
:105150007565223A25647D2C00000000280000209F
:10516000747275650000000066616C736500000074
:105170002262656570223A7B2276616C7565223AFF
:1051800025737D2C000000002F00002010B1AFF22D
:10519000280001E0AFF238000246D7A1684604F0CB
:1051A000F1FA6946204604F0A9FE3021684604F071
:1051B0004AFFD6480278D6A1684604F0E3FA694669
:1051C000204604F09BFE3021684604F03CFFD648A0
:1051D0000278D6A1684604F0D5FA6946204604F064
:1051E0008DFED7A1204604F089FE204604F01CFE67
:1051F000C0B20CB010BD30B5C5B000204190429097
:1052000043904490002400254FF4807101A804F0DD
:105210001AFF01A8FFF7E5FD0446002C23D041A8A2
:1052200000232246AFF2A8210090AFF2C42001F083
:10523000F8F8A0B908E001A8415D429A501C4290DC
:1052400041988154681C05B2A542F4DB429A91B2A0
:10525000419801F030FD41A800F010FE03E0B9A133
:10526000C048FDF7FAFD45B030BD70B588B00546C1
:105270000C460020049005900690079023462A468D
:10528000B9A1B848FDF7E9FD204604F0CDFD06467A
:1052900004A80121002200923346CDE901210390A8
:1052A000224629460A2000F0DAFF38B9059A91B261
:1052B000049801F000FD04A800F0E0FD08B070BD06
:1052C00000B595B00020119012901390149003A88F
:1052D0000290AFF25430AFF27033ABA2382100909D
:1052E00003A804F065FA03AAAFA19E48FDF7B5FD37
:1052F00011A8012302AA00210090142001F09BF9BB
:1053000038B9129A91B2119801F0D5FC11A800F0A9
:10531000B5FD15B000BD2DE9F14F90B000200F9004
:105320000E900D900C900B9000250A90099008901B
:10533000109800F0EBFD0546032D04D0042D7DD020
:10534000092D7CD1B0E09E480BA90CAA0FABCDE98A
:10535000002102900DAA0EA9109801F0A4FA0A905B
:105360000A9800286CD10290BDF830000F99CDE961
:105370000010BDF8343093A17A480E9AFDF76DFD08
:105380000F9802F001FC07909DA1079803F002F826
:1053900006909DA1069802F0FDFF06469BA1069887
:1053A00002F0F8FF07469BA1069802F0F3FF804643
:1053B0009AA1069802F0EEFF81469AA1069802F0A3
:1053C000E9FF82469AA1069802F0E4FF83469AA17B
:1053D000069802F0DFFF059099A1069802F0DAFF27
:1053E000039099A1069802F0D5FF049098A1069821
:1053F00002F0D0FF04464EB1F068012803D100202E
:10540000FDF7A0FE02E00120FDF79CFE47B1F86821
:10541000012802D1FDF79AFB02E00020FDF796FB80
:10542000B8F1000F03D098F814008B490870B9F157
:10543000000F07D099F81400884902E02BE041E002
:1054400028E00870BAF1000F03D09AF814008449DC
:105450000870BBF1000F03D09BF81400814908705D
:10546000059818B10598007D7F490870039818B118
:105470000398007D7D490870049818B10498007D58
:105480007B49087014B1207D7A490870079801F0B3
:1054900079FD00BF00BF109801F005FB18B976A197
:1054A0003048FDF7DAFC11E0109801F043F920B91B
:1054B00079A12C48FDF7D1FC03E07EA12948FDF736
:1054C000CCFC03E04FF0FF300A9000BF00BF01F0BA
:1054D000ADFB0A98401C10B911B0BDE8F08F0F2D3C
:1054E00001D0032D05D10E9804F0FDF80F9804F0BB
:1054F000FAF800BFF0E70000226C6564223A7B22D4
:1055000076616C7565223A25737D2C00440000207D
:10551000226C73656E73223A7B2276616C7565220C
:105520003A25647D2C000000450000202270706D3B
:10553000223A7B2276616C7565223A25647D0000F3
:105540007D7D00005741524E3A094544505F4E65FB
:1055500077427566666572204661696C65640D0AFE
:1055600000000000003801405075626C69736820CB
:10557000546F7069633A2025732C204D73673A206D
:1055800025730D0A00000000247379732F25732FF3
:1055900025732F7468696E672F70726F70657274EF
:1055A000792F7365740000005375627363726962CA
:1055B0006520546F7069633A2025730D0A0000005E
:1055C0004E000020746F7069633A2025732C20749C
:1055D0006F7069635F6C656E3A2025642C20706182
:1055E000796C6F61643A2025732C207061796C6F3F
:1055F00061645F6C656E3A2025640D0A000000004E
:10560000706172616D7300006C6564006265657045
:105610000000000068756D695F74680074656D70E6
:105620005F7468006C73656E735F746800000000DF
:1056300070706D5F74680000627269676874000062
:10564000736F756E64000000737065656400000020
:105650006772616D6F6465004200002043000020A6
:10566000460000204700002048000020490000209C
:105670004A0000204B000020546970733A094D51D4
:105680005454205075626C6973682053656E6420B1
:105690004F4B0D0A00000000546970733A094D51D8
:1056A000545420537562736372696265204F4B0DC9
:1056B0000A000000546970733A094D515454205344
:1056C0007562736372696265204572720D0A00002B
:1056D000F0B50446142C06DA01EA020523EA0106B5
:1056E00085EA060019E0282C04DA81EA020787EA35
:1056F000030012E03C2C0ADA01EA020501EA030782
:1057000087EA050602EA030787EA060005E0502C4F
:1057100003DA81EA020787EA0300F0BD0146142993
:1057200001DAFE480AE0282901DAFD4806E03C29B2
:1057300001DAFC4802E0502900DAFB487047F0B576
:10574000024601209040441EE54301EA050020FA8C
:1057500002F601EA0400C2F1200C00FA0CF746EA56
:1057600007031846F0BDF0B50246C2F1200C012037
:1057700000FA0CF0441EE54301EA040000FA02F6C8
:1057800001EA0500C2F1200C20FA0CF746EA0703F3
:105790001846F0BD2DE9F04FDDB007468A461546A4
:1057A0000AF1080909F101094FEACA005B9048466D
:1057B0004FEAE97109EB91618E1148464FEAE971B0
:1057C00009EB91618911A9EB81115C915C9800282A
:1057D00000DD761C5C98C0F140008144D04604E0B6
:1057E000002007F8080008F10108B8EB861FF7DB76
:1057F000802007F80A000121C1EB86115B987854DC
:105800005B98C0F307200221C1EB861178545B98A6
:10581000C0F307400321C1EB861178545B98000E5A
:105820000421C1EB86117854C0485690C048579067
:10583000BE48C0435890BE48C0435990BD485A9096
:105840004FF00008A5E0002452E0102C32D24FEABD
:10585000881000EB8400385C000601A941F82400A0
:105860004FEA881000EB8400401C385C51F824108B
:105870004FF4803202FB001001A941F824004FEAE6
:10588000881000EB8400801C385C51F82410121240
:1058900002FB001001A941F824004FEA881000EB38
:1058A0008400C01C385C51F82410084401A941F858
:1058B00024001CE0502C1AD2E01E01AA52F820004D
:1058C000A4F1080201AB53F822205040A4F10E02CB
:1058D00053F822205040A4F1100253F8222080EA0D
:1058E00002010120FFF73FFF01A941F82400641CD9
:1058F000502CAAD356985590579854905898539036
:10590000599852905A98519000242AE005205599B0
:10591000FFF729FF83462046529B539A5499FFF77D
:10592000D7FE5844009051990098084400902046B2
:10593000FFF7F4FE00990844009001A850F82410E5
:1059400000980844009052985190539852901E200D
:105950005499FFF708FF539055985490009855902C
:10596000641C502CD2D35699559808445690579998
:105970005498084457905899539808445890599906
:105980005298084459905A99519808445A9008F1ED
:105990000108B045FFF657AF5698E8705698000AD0
:1059A000A8705698000C68705698000E287057988A
:1059B000E8715798000AA8715798000C68715798B9
:1059C000000E28715898E8725898000AA8725898E2
:1059D000000C68725898000E28725998E87359980C
:1059E000000AA8735998000C68735998000E287320
:1059F0005A98E8745A98000AA8745A98000C687467
:105A00005A98000E28745DB0BDE8F08F2DE9F04F74
:105A1000ADF58E5D07460E46924698460DF58050D0
:105A2000D0F8E49140254FF0360B5C21C0F8BC1152
:105A3000002405E0002041F27C1169440855641CF3
:105A4000402CF7DBAE421FD0AE4210DD4A46314655
:105A50003846FFF79FFE002406E019F8040041F2E3
:105A60007C1169440855641C142CF6DB16E0AE4228
:105A700014DA002405E0385D41F27C1169440855D0
:105A8000641CB442F7DB09E0002405E0385D41F214
:105A90007C1169440855641CAC42F7DB00240AE021
:105AA00041F27C106844005D80EA0B0041F23C1139
:105AB00069440855641C402CF2DB002406E041F2E6
:105AC0003C106844005D1FA90855641C402CF6DB9F
:105AD000002406E01AF804101FAA04F14000115433
